:020000040800F2
:10000000F80C0020450100080D430008853E00085B
:10001000D140000801160008554E000800000000FD
:10002000000000000000000000000000B3470008CE
:1000300021170008000000000F4300080B480008CB
:100040005F0100085F0100085F0100085F01000810
:100050005F0100085F0100085F0100085F01000800
:100060005F0100085F0100085F0100085F010008F0
:100070005F0100085F0100085F0100085F010008E0
:100080005F0100085F0100085F0100085F010008D0
:100090005F0100085F0100085F0100085F010008C0
:1000A0005F0100085F0100085F0100085F010008B0
:1000B0005F0100086D4800085F0100085F0100084B
:1000C0005F0100085F0100085F0100085F01000890
:1000D0005F010008494C0008FD4C00085F01000862
:1000E0005F0100085F0100085F0100085F01000870
:1000F0005F0100085F0100085F0100085F01000860
:100100005F0100085F0100085F0100085F0100084F
:100110005F0100085F0100085F0100085F0100083F
:100120005F0100085F0100085F0100085F0100082F
:10013000DFF80CD000F09CFC004800470D5B000885
:10014000F80C00200648804706480047FEE7FEE717
:10015000FEE7FEE7FEE7FEE7FEE7FEE7FEE7FEE777
:100160001548000831010008A0F14101192900D803
:100170002030704740EA01039B0703D009E008C91B
:10018000121F08C0042AFAD203E011F8013B00F85C
:10019000013B521EF9D27047D2B201E000F8012BA8
:1001A000491EFBD270470022F6E710B513460A46F7
:1001B00004461946FFF7F0FF204610BD30B505464E
:1001C0002A460B4612F8010B13F8014B08B1A04266
:1001D000F8D01CB1002802D06D1CF1E7284630BDD4
:1001E000421C10F8011B0029FBD1801A704730B562
:1001F00005460020034600E05B1C934205D2EC5C00
:10020000C85C201A01D1002CF6D130BDF0B480EAD0
:100210000102D40F4200B2EB410F02D2024608465F
:1002200011464A0042D0C30DDDB2C1F3C752AD1A28
:10023000202D35DAC1F3160141F4000204B1524217
:10024000C5F1200602FA06F12A411044B3EBD05F53
:1002500023D0C4B1012DA0EBC35009DCF0BC4FF09A
:10026000004202EAC352DBB200F5000000F045BBD9
:10027000400000F1807000EBC350A0F1807040EAB4
:10028000D170490009E0490841EAC071A0EBC350B0
:1002900000F50000400800EBC350F0BC00F024BBA8
:1002A0006142012202EB4101001BF6E7F0BC7047FE
:1002B00081F00041AAE780F00040A7E780EA010250
:1002C00010B502F00043400022D04A001FD0010EBA
:1002D00001EB1261C0F35600C2F3560240F4000075
:1002E00042F40002A0FB022000047F39140400D075
:1002F000401C50EA124001D44000491EC2B20C0614
:1003000004EBD010401C4008802A02D003E00020FB
:1003100010BD20F00100002900DA0020184310BDB4
:1003200030B480EA010202F0004530F0004221F0D2
:10033000004013D090B1C30DD40DC2F31601C0F329
:100340001600E41A41F4000140F400027D349142A9
:1003500001D3641C00E04900002C02DA30BC00200C
:1003600070474FF400000023914201D3891A0343E0
:1003700040084FEA4101F7D151B1914202D14FF00B
:10038000004105E002D24FF0010101E06FF00101F0
:1003900003EBC450284430BC00F0A6BA2DE9FE4F50
:1003A000804681EA0300C00F0C46009021F0004116
:1003B00023F00045B8EB0200A94105D24046214692
:1003C00090461C460B46024623F00040104347D09F
:1003D000270DC7F30A00C3F30A510290401A019097
:1003E00040286BDAC3F3130040F4801B0098924658
:1003F00020B10023D2EB030A63EB0B0B01985946A3
:10040000C0F14002504600F03EFA06460D46504606
:100410005946019A00F056FA10EB08006141002499
:1004200087EA115284EAE7731A4340D0009A62B314
:10043000019A012A4FEA075215DC001B61EB020109
:100440004FF0004202EA0752CDE90042001C41F59C
:10045000801132462B4600F08DFA03B0BDE8F08FD4
:1004600040462146F9E7001B61EB0201001C41F503
:10047000801300185B412018A2F5001747EB030119
:1004800040EAD570B6196D4111E06D084FEA3606A5
:1004900045EAC0754FEA0752001B61EB0201001CE0
:1004A00041F5801149084FEA3000001951413246A8
:1004B0002B4603B0BDE8F04F00F04DBA0098012282
:1004C00040000023D0EB020263EBE073009821466A
:1004D0004FEAE074B8EB000061EB0401E9E783F058
:1004E00000435BE781F0004158E72DE9FE4F81EAC8
:1004F000030404F0004421F0004100944FF0000B8D
:1005000023F0004350EA01045ED052EA03045BD0BA
:10051000C3F30A54C1F30A552C44A4F2F3340194F2
:10052000A0FB0254C1F3130141F48011C3F3130380
:1005300043F4801301FB024400FB034E840A970A34
:1005400044EA815447EA8357A4FB076802958D0A61
:1005500005FB07854FEA932C04FB0C542705029DED
:100560004FEA065847EA1637B5EB08056EEB070C5D
:10057000870E920E47EA811742EA8312A7FB020117
:10058000B6EB0B0164EB00042B0D43EA0C335E1851
:1005900044EB1C50DA465146E7FB0201C5F3130455
:1005A0004FEA0B3343EA14534FEA0432019C43EA07
:1005B0000603A4F10C040294009CCDE900B400F001
:1005C000D9F903B0BDE8F08F00200146F9E72DE925
:1005D000F04D81EA030404F0004B21F0004514467D
:1005E0004FF0000A23F0004150EA050220D054EAFF
:1005F00001021DD0C5F30A570246C5F31303C1F328
:100600001300C1F30A5640F4801543F48013A7EB9E
:100610000608101BD64608F2FD3873EB050002D31E
:1006200008F1010801E092185B41B8F1000F03DA0C
:1006300000200146BDE8F08D00204FF480110646F1
:1006400084460EE0171B73EB050705D3121B63EB03
:10065000050306434CEA010C49084FEA30009218A2
:100660005B4150EA0107EDD152EA030012D082EA61
:10067000040083EA0501084305D0101BAB4106D2F4
:100680000122002306E000224FF0004302E06FF059
:10069000010253101AEB06004CEB085110EB0A0054
:1006A00041EB0B01BDE8F04D00F055B9C10F80EAF8
:1006B000E0700844CA079623002100F01EB9962373
:1006C0000022114600F019B90EB5C10F80EAE070A2
:1006D0000844CA07002140F233438DE80E000A4661
:1006E0000B4600F047F903B000BD0EB540F23341B0
:1006F00002910021CDE900110A460B4600F03AF9BB
:1007000003B000BD20F00040C10DC0F3160040F45E
:1007100000007F2901DA00207047962903DCC1F12F
:100720009601C840704796398840704770B5C1F34C
:100730000A5201F000450024C1F3130140F2FF33D7
:1007400041F480119A4201DA002070BD40F2334337
:100750009A42A2F2334203DC524200F0A3F800E0D6
:1007600090402C43F1D0404270BD00F0004230F088
:1007700000400AD0C10D01F56071C0F3160042EAD5
:100780000151C208400711437047002001467047DD
:1007900030B5041E71F1000404DB4FF00044404208
:1007A00064EB0101141E73F1000405DB1C464FF0DD
:1007B0000043524263EB0403994208BF904230BDAC
:1007C00001F0004330B421F0004150EA010206D0AC
:1007D0000A0DA2F56072C1F31301002A02DC30BCDD
:1007E00000207047440F44EAC104C100E01830BC47
:1007F00000EBC25000F078B830B50B46014600203F
:100800002022012409E021FA02F59D4205D303FAD2
:1008100002F5491B04FA02F52844151EA2F1010253
:10082000F1DC30BD2DE9F05F0546002092469B4685
:1008300088460646814640241BE0284641464746F6
:10084000224600F02FF853465A46C01A914110D361
:1008500011461846224600F016F82D1A67EB0108DB
:100860004F4622460120002100F00DF817EB000949
:100870004E41201EA4F10104DFDC484631462A46E1
:100880004346BDE8F09F202A04DB203A00FA02F13B
:10089000002070479140C2F1200320FA03F319436E
:1008A00090407047202A04DB203A21FA02F0002110
:1008B000704721FA02F3D040C2F120029140084370
:1008C00019467047202A06DBCB17203A41FA02F07E
:1008D00043EAE07306E041FA02F3D040C2F120029D
:1008E00091400843194670470029A8BF7047401C33
:1008F000490008BF20F00100704710B4B0FA80FC36
:1009000000FA0CF050EA010404BF10BC704749B172
:10091000CCF1200421FA04F411FA0CF118BF0121E2
:1009200021430843A3EB0C01CB1D4FEA00614FEAC2
:10093000102042BF002010BC704700EBC350104491
:100940000029A4BF10BC7047401C490008BF20F01C
:10095000010010BC704710B5141E73F1000408DAD2
:10096000401C41F1000192185B411A4301D120F073
:10097000010010BD2DE9F04D92469B4611B1B1FA30
:1009800081F202E0B0FA80F220329046FFF77BFF5E
:1009900004460F4640EA0A0041EA0B0153465A4614
:1009A000084313D0114653EA010019D0C8F14002A0
:1009B0005046FFF777FF05460E46504659464246D9
:1009C000FFF761FF084305D0012004E020463946C7
:1009D000BDE8F08D0020054346EAE0762C4337431E
:1009E0000A986305E40AA0EB08000022FD0A44EA25
:1009F00047540A3002D500200146E9E701051019E5
:100A00006941DDE9084500196941BDE8F04DA2E7FB
:100A100070B521F0004303430CD0C1F30A55002404
:100A2000D5EB040564EB0403D617AD1AB34102DB22
:100A30000020014670BD201841EB025170BDC1F38A
:100A40000A52C1F3130140F2FF3341F480119A427C
:100A500002DA00200146704740F233439A42A2F284
:100A6000334202DC5242FFF71DBFFFF70CBF00000C
:100A7000064C074D06E0E06840F0010394E80700EB
:100A800098471034AC42F6D3FFF756FB3870000895
:100A9000587000082DE9F04D00231A461B1A8A41B0
:100AA00003DB00200146BDE8F08DC1F30A52C1F31B
:100AB000130141F480154FF0000BD10702D100184B
:100AC0006D41521E0027044640F2FF11384601EBEB
:100AD000620A3E468046024600204FF48011FFF72E
:100AE000E1FEC2197141BB1846EB0100B4EB030CE7
:100AF00075EB000C04D3E41A65EB000517460E46AF
:100B0000241908F101006D4180463428E3DDF9190C
:100B100046EB0600091BA84103D24FF0FF321346F3
:100B200001E0002213461BEB070046EB0A51BDE82B
:100B3000F04DFFF710BF0000F8B5FE499E2000F011
:100B4000DBFC0020FB49C8700846006845F255519F
:100B5000884202D000F044FCF7E3F6490C2000F094
:100B6000CBFCF4480068009000208DF8030064215D
:100B7000009848434EF6D011B0FBF1F00090009879
:100B8000FFF7B3FDEC4A03C2EC49009808800888DF
:100B9000FFF795FD0546EA49FFF7C2FB0446FFF75C
:100BA000E4FDE54A03C2E3490D2000F0A5FCE1485D
:100BB0000068009000208DF80300642100984843ED
:100BC0004EF6D011B0FBF1F00090009880B2DB49F6
:100BD00048804888FFF773FD0546D949FFF7A0FB19
:100BE0000446FFF7C2FDD44AC2E90201D1490E20F2
:100BF00000F082FCCF480068009000208DF80300D0
:100C00006421009848434EF6D011B0FBF1F00090FB
:100C1000CA49009888808888FFF751FD0546C84971
:100C2000FFF77EFB0446FFF7A0FDC34AC2E90401BB
:100C3000C0490F2000F060FCBE4800680090002012
:100C40008DF803006421009848434EF6D011B0FBA4
:100C5000F1F00090B9490098C880C888FFF72FFDCF
:100C60000546B749FFF75CFB0446FFF77EFDB24A35
:100C7000C2E90601AF49122000F03EFCAD48006811
:100C8000009000208DF803006421009848434EF640
:100C9000D011B0FBF1F00090A849009888818889B4
:100CA000FFF70DFD0546A649FFF73AFB0446FFF79F
:100CB0005CFDA14AC2E908019E49132000F01CFC1A
:100CC0009C480068009000208DF803006421009883
:100CD00048434EF6D011B0FBF1F0009097490098D0
:100CE000C881C889FFF7EBFC05469549FFF718FB5B
:100CF0000446FFF73AFD904AC2E90A018D491420E3
:100D000000F0FAFB8B480068009000208DF803008B
:100D10006421009848434EF6D011B0FBF1F00090EA
:100D2000864900980882088AFFF7C9FC054684496D
:100D3000FFF7F6FA0446FFF718FD7F4AC2E90C01F7
:100D40007C49152000F0D8FB7A480068009000200C
:100D50008DF803006421009848434EF6D011B0FB93
:100D6000F1F00090754900984882488AFFF7A7FC87
:100D700005467349FFF7D4FA0446FFF7F6FC6E4ABE
:100D8000C2E90E016B49162000F0B6FB6948006805
:100D9000009000208DF8030064210098484342F63B
:100DA000DE61B0FBF1F00090644900988882888A87
:100DB000FFF785FC05466249FFF7B2FA0446FFF7E4
:100DC000D4FC604A03C25F48D0E900211046FFF717
:100DD000F7FC0646FFF7C9FC04465748D0E9006314
:100DE00032462046FFF781FB564AC2E9020110460F
:100DF000D0E900211046FFF7E3FC0646FFF7B5FCFB
:100E000004464D48D0E9026332462046FFF76DFBA9
:100E10004C4AC2E904011046D0E900211046FFF710
:100E2000CFFC0646FFF7A1FC04460D464249D1E936
:100E3000046332462946FFF758FB424AC2E90601DD
:100E40001046D0E900211046FFF7BAFC0646FFF72E
:100E50008CFC04463848D0E9066332462046FFF74A
:100E600044FB384AC2E908011046D0E90021104687
:100E7000FFF7A6FC0646FFF778FC04462E48D0E9AB
:100E8000086332462046FFF730FB2E4AC2E90A01CA
:100E90001046D0E900211046FFF792FC0646FFF706
:100EA00064FC04460D462449D1E90A6332462946CA
:100EB000FFF71BFB234AC2E90C011146D1E90021CF
:100EC0001046FFF77DFC0646FFF74FFC04460D4633
:100ED0001949D1E90C6332462946FFF706FB194A46
:100EE000C2E90E011146D1E900211046FFF768FC66
:100EF0000646FFF73AFC04460D460F49D1E90E635A
:100F000032462946FFF7F1FA0E4AC2E910010949B3
:100F1000222000F0F1FA07480068009000208DF8C8
:100F2000030009490098884203D30098C0F18070FB
:100F300000900BE050000020A80000206E0600206A
:100F40000000C842E8000020FFFF7F0064210098F5
:100F5000484340F6B421B0FBF1F00090FB49009803
:100F6000C882FB49232000F0C7FAF94800680090C6
:100F700000208DF80300F7490098884203D30098B9
:100F8000C0F18070009064210098484340F6B4217D
:100F9000B0FBF1F00090ED4900980883EC49242063
:100FA00000F0AAFAEA480068009000208DF80300DB
:100FB000E8490098884203D30098C0F180700090FF
:100FC00064210098484340F6B421B0FBF1F0009052
:100FD000DE4900984883DE49252000F08DFADC4880
:100FE0000068009000208DF80300DA4900988842DC
:100FF00003D30098C0F180700090642100984843AA
:1010000040F6B421B0FBF1F00090D04900988883FD
:10101000CF49282000F070FACD48006800900020E9
:101020008DF80300CB490098884203D30098C0F1A3
:101030008070009064210098484340F6B421B0FBD2
:10104000F1F00090C14900984884C149292000F07E
:1010500053FABF480068009000208DF80300BD4996
:101060000098884203D30098C0F1807000906421FA
:101070000098484340F6B421B0FBF1F00090B3492A
:1010800000988884B2492A2000F036FAB0480068F7
:10109000009000208DF80300AE490098884203D3E9
:1010A0000098C0F18070009064210098484340F699
:1010B000B421B0FBF1F00090A4490098C884A44981
:1010C0002B2000F019FAA2480068009000208DF84B
:1010D0000300A0490098884203D30098C0F18070B3
:1010E000009064210098484340F6B421B0FBF1F031
:1010F000009096490098088595494E2000F0FCF92B
:1011000093480068009000208DF8030092490098F1
:10111000B1FBF0F000908D490098A1F84000B1F8C3
:101120004000FFF7CCFA05468C49FFF7F9F8044672
:10113000FFF71BFB8A4A03C285492F2000F0DCF928
:1011400083480068009000208DF8030085490988D5
:10115000009808440090009800F0A6FC7B48408D61
:10116000814909880844794948857F4840887D49F4
:1011700008807749302000F0BFF97548006800907A
:1011800000208DF8030077494988009808440090B2
:10119000009800F089FC6D48808D734909880844E7
:1011A0006A498885704840886E494880684931207E
:1011B00000F0A2F966480068009000208DF8030056
:1011C00068498988009808440090009800F06CFCF9
:1011D0005E48C08D6449098808445C49C8856248F6
:1011E0004088604988805A49322000F085F9584883
:1011F0000068009000208DF803005A49C9880098C3
:1012000008440090009800F04FFC5048008E56496A
:10121000098808444D490886534840885149C88088
:101220004B49352000F068F94948006800900020DB
:101230008DF803004B498989009808440090009874
:1012400000F032FC4148C08E4749098808443F49B4
:10125000C88645484088434988813D49362000F08A
:101260004BF93B480068009000208DF803003D4991
:10127000C989009808440090009800F015FC334894
:10128000008F394909880844304908873648408822
:101290003449C8812E49372000F02EF92C480068C7
:1012A000009000208DF803002E49098A0098084418
:1012B0000090009800F0F8FB2448408F2A490988E4
:1012C00008442249488728484088264908822049FE
:1012D000382000F011F91E480068009000208DF8B9
:1012E00003002049498A009808440090009800F0C3
:1012F000DBFB1648808F1C490988084413498887FE
:1013000019484088174948821149392000F0F4F8FB
:101310000F480068009000208DF803001149898A69
:1013200000980844009011490098884220D3009802
:10133000B0FBF1F00C4908800C490098B0FBF1F2C9
:1013400001FB12000849488017E039E06E060020D2
:1013500050000020FFFF7F0000CA9A3B0000C842F7
:1013600030010020580600204A0000206CE32300D2
:10137000002014490880009848801348C08F114904
:10138000098808441049C8870E4840880F49888258
:1013900000F0B2F90EA003F05FFD03F0A1F803F036
:1013A0002BF802F0B5FFC82004F04AFB0B48006898
:1013B00008B9012000E000200849086000F03EFB69
:1013C0000020F8BD4A0000206E06002058060020CC
:1013D00041542B43434C4B3F0D0A0000A081214256
:1013E00010B55520304908704870002088709E2044
:1013F00000F0CEF8012001F011F800F05FF808B11C
:10140000012010BD4FF4833027490860982000F078
:10141000BFF8002024490860602000F0B9F80020DF
:1014200021490860612000F0B3F800201E490860DF
:10143000882000F0ADF84FF480001B49086096202A
:1014400000F0A6F81948184908608B2000F0A0F8B1
:1014500041F6FF70144908609D2000F099F8144887
:10146000114908609F2000F093F8022000F0D6FF99
:101470000020104948858885C88508864886888662
:10148000C886088748878887C8870B4908804880AE
:101490008880C880088148818881C8810882488204
:1014A000888200BFADE7000050000020FFFF0F0062
:1014B0005A5A5A006E0600205806002010B50D49F1
:1014C000E52000F019F800200A49C87008460068B5
:1014D00021280AD1E62000F00FF800200549C87045
:1014E0000846006818B9002010BD0120FCE7012063
:1014F000FAE70000500000202DE9FC4105460C46AB
:10150000002210211F4801F03DF982208DF80400CF
:101510008DF805506423022201A91B4801F02BFF1E
:10152000642304226946184801F000FE0746F7B913
:1015300003236A462946822000F0CCF806469DF82F
:101540000300B0420FD10020104908709DF8000040
:10155000A0709DF8010060709DF8020020709DF859
:101560000300E07006E002200849087002E0012054
:101570000649087001221021024801F003F9BDE874
:10158000FC81000000080140000600204800002007
:101590007CB505460C4620788DF8000060788DF803
:1015A0000100A0788DF8020003236A4629468120B5
:1015B00000F090F88DF8050081208DF800008DF87E
:1015C0000150A0788DF8020060788DF80300207833
:1015D0008DF8040000221021074801F0D3F864239D
:1015E00006226946054801F0C6FE01221021024884
:1015F00001F0C8F87CBD0000000801400006002092
:1016000000BFFEE72DE9F047C0B08146002528A1C4
:101610004846FEF7D3FD064686B10DE0705D0D2805
:1016200005D10021681E01AA1154002505E0705D56
:1016300001A94855681CC5B2F0E700BF01A804F035
:1016400095F9824601A810B940B0BDE8F08719A10C
:10165000504604F06BF98046B8F1000F00D1F3E773
:1016600016A1404604F062F9044644B1277D1FB13B
:1016700001201549086002E000201349086013A109
:10168000404604F053F9044644B1277D1FB10020C1
:101690000F49086002E001200D490860FC2101A803
:1016A000FEF781FD504604F015F900BFCCE70000BD
:1016B0007B000000706172616D73000042656570AF
:1016C0005377697463680000B40122424E4F0000F2
:1016D0008081214270B504460D466619F0B20021A2
:1016E00004E0565C0644F0B24E1CF1B29942F8DBBD
:1016F000C643F0B270BD000010B5002404E0002025
:1017000005490855601CC4B2FA2CF8DB00200349D7
:10171000087002F0B9FB10BD900300203E000020CD
:101720007047000000B585B000BF0D48806940F0EB
:1017300004000B4988610846806900F004000090AD
:1017400000BF00BF88150190012002900320049083
:101750000120039001A9034800F074FE05B000BD0C
:10176000001002400008014010B54FF4967004F0DC
:1017700067F977A003F070FB4FF4967004F060F9FE
:1017800075A17648FEF71AFD75490860FFF7B4FFAA
:101790000EE0FFF7B1FF6EA003F05EFB4FF4967012
:1017A00004F04EF96CA16D48FEF708FD6C49086025
:1017B0006B4800680028ECD06AA003F04DFB4FF4A2
:1017C000967004F03DF96AA003F046FB4FF4967062
:1017D00004F036F969A16148FEF7F0FC6049086041
:1017E000FFF78AFF0EE0FFF787FF61A003F034FBED
:1017F0004FF4967004F024F960A15848FEF7DEFC1F
:1018000057490860564800680028ECD05CA003F0F7
:1018100023FB4FF4FA7004F013F95CA14F48FEF774
:10182000CDFC4F4908605CA14C48FEF7C7FC5D4900
:10183000086014E0FFF760FF51A003F00DFB4FF4C8
:10184000FA7004F0FDF851A14448FEF7B7FC444992
:10185000086051A14148FEF7B1FC52490860404878
:10186000006818B94F4800680028E3D0FFF744FF2C
:101870004DA003F0F1FA4FF4FA7004F0E1F84DA135
:101880003648FEF79BFC364908604DA13348FEF709
:1018900095FC4449086014E0FFF72EFF42A003F0D6
:1018A000DBFA4FF4FA7004F0CBF842A12B48FEF7B4
:1018B00085FC2B49086042A12848FEF77FFC394986
:1018C00008602748006818B9364800680028E3D047
:1018D000FFF712FF3DA003F0BFFA4FF4FA7004F0D7
:1018E000AFF8FFF709FF3CA003F0B6FA4FF4FA7027
:1018F00004F0A6F8FFF700FF3BA003F0ADFA4FF4A9
:10190000FA7004F09DF8FFF7F7FE3FA003F0A4FA89
:101910004FF4FA7004F094F8FFF7EEFE3EA003F0E7
:101920009BFA4FF4FA7004F08BF8FFF7E5FE3DA048
:1019300003F092FA4FF4967004F082F83CA003F0A2
:101940008BFA4FF4967004F07BF8FFF7D5FE10BDCC
:1019500041540D0A000000004F4B0000900300208E
:10196000400000204154453026570D0A0000000079
:1019700041542B43494D490D0A00000034363000D4
:1019800041542B435245473F0D0A00002B4352451B
:10199000473A20302C3100002B435245473A203043
:1019A0002C3500004400002041542B43475245474A
:1019B0003F0D0A002B43475245473A20302C310057
:1019C0002B43475245473A20302C350041542B4396
:1019D0004F50533F0D0A000041542B514D54444980
:1019E00053433D300D0A000041542B5149435347A6
:1019F000503D312C312C22434D4E4554222C222275
:101A00002C22222C300D0A0041542B5149414354C1
:101A10003D310D0A0000000041542B51494143540F
:101A20003F0D0A0041542B514750533D310D0A00E0
:101A300041542B514750533F0D0A000000B5BFB031
:101A400012A11548FEF7BAFB144908600846006861
:101A5000B8B113A11048FEF7B1FB10490860084661
:101A6000006850B10F4802780B496846FEF782FBC8
:101A70006846FFF7C7FDFFF73FFEFC216846FEF70B
:101A800092FB0020074908703FB000BD2B514D5418
:101A9000524543563A0000009003002040000020C9
:101AA0007D2200003E00002042F2E50188420CD376
:101AB000B0FBF1F1074A118042F2E501B0FBF1F20F
:101AC00001FB1201034A518003E00021014A118009
:101AD000508070474A00002010B50AA003F0BCF9FE
:101AE0004FF4967003F0ACFF0CA10F48FEF766FBB5
:101AF0000E4908600846006808B100F029F8FFF7B1
:101B0000FBFD10BD41542B51475053474E4D4541AD
:101B10003D22524D43220D0A000000002B51475038
:101B200053474E4D45413A009003002040000020AD
:101B300010B5044603A003F08FF94FF4967003F03C
:101B40007FFF10BD41542B514C42530D0A00000041
:101B500000B5A7B01C22F9A11EA8FEF70BFBFEA141
:101B6000FE48FEF72BFB2590259800287ED000200C
:101B700026900AE026980A3825990A5CF8482699A2
:101B800042542698401CC0B2269026980928F1DBC2
:101B9000F4A1F248FEF712FB25902598002866D0A4
:101BA000002026900BE026980B382599095CEC4A1A
:101BB0000A3A269811542698401CC0B226902698BE
:101BC0000A28F0DB002026900BE0E5490A39269828
:101BD0000A5C01F11300269942542698401CC0B2B9
:101BE000269026980328F0DB032026900AE0DC49A3
:101BF0000A3926980A5CC01E18310A542698401CDF
:101C0000C0B2269026980A28F1DBD5480A38807F92
:101C100030381190FEF74AFDD3491290FEF780FB51
:101C20001490CF480A38407F30380F90FEF73EFDC1
:101C3000CE491090FEF774FB1290C9480A38007F15
:101C400030380D90FEF732FDC9490E90FEF768FB63
:101C50001090C3480A38C07E30380B90FEF726FD3E
:101C6000C4490C90FEF75CFB0E9001E0DDE234E12C
:101C7000BB480A38407E3038B9490A39097E3039C4
:101C800001EB810100EB41000C90FEF70FFD0D9080
:101C90000E99FEF7BBFA0F901099FEF7B7FA119064
:101CA0001299FEF7B3FA13901499FEF7AFFA159054
:101CB000FEF75BFD0022B04BCDE91601FEF787FC75
:101CC000CDE91A01A6480A38C07C3038642148435F
:101CD000A3490A39097D303901EB810100EB41014B
:101CE0009F480A38407D303808441790FEF7ECFCD6
:101CF000CDE91801DDE91A23FEF750FBCDE91C01FF
:101D0000FEF75EFD96490A39C8620020269008E079
:101D100093482699425C0C3042542698401CC0B22D
:101D2000269026980228F3DB0220269009E08C48B2
:101D30002699425C891E153042542698401CC0B238
:101D4000269026980928F2DB85480A3890F8250065
:101D500030381190FEF7AAFC83491290FEF7E0FAA2
:101D600014907F480A3890F8240030380F90FEF71E
:101D70009DFC7E491090FEF7D3FA129078480A38FD
:101D800090F8230030380D90FEF790FC78490E90C3
:101D9000FEF7C6FA109072480A3890F822003038E0
:101DA0000B90FEF783FC73490C90FEF7B9FA0E9086
:101DB0006B480A3890F82000A0F1300168480A38D2
:101DC000C07F303800EB800001EB40000C90FEF744
:101DD0006DFC0D900E99FEF719FA0F901099FEF711
:101DE00015FA11901299FEF711FA13901499FEF753
:101DF0000DFA1590FEF7B9FC00225F4BCDE91601F4
:101E0000FEF7E5FBCDE91A0155480A38C07D3038A8
:101E100053490A39897D303901EB810100EB4100DA
:101E20001790FEF751FCCDE91801DDE91A23FEF702
:101E3000B5FACDE91C01FEF7C3FC49490A398862AD
:101E40000846806A1590FEF75DFC1690FEF737FC99
:101E5000179043480A38806A014616901798FEF793
:101E60002AFA46491890FEF729FA1990FEF74AFC1B
:101E70001D903B480A38806A1990FEF743FC1C907D
:101E800037480A38C06A1590FEF73CFC1690FEF7FA
:101E900016FC179032480A38C06A01461690179807
:101EA000FEF709FA35491890FEF708FA1990FEF77F
:101EB00029FC1B902A480A38C06A1990FEF722FCB8
:101EC0001A90DDE91C01CDE900011EA92448263045
:101ED000DDE91A2302F0D0FFACE1FFF70DFC284842
:101EE000FFF726FE264880782E287DD100202690F8
:101EF00097E12348C07C30381590FEF7E5FB214A76
:101F0000214BCDE91601FEF7F0FACDE91A011C4884
:101F1000807C30381190FEF7D7FB1C4A1C4BCDE972
:101F20001201FEF7E2FACDE916011548407C30387F
:101F30000D90FEF7C9FB174A174B2FE07B6C6F6EB5
:101F40003A25642E253036643A6C61743A25642E45
:101F5000253036647D0000004E2C000090030020E8
:101F6000FA040020452C000000401C4600007A4482
:101F70000000C8420000204100004E400024744987
:101F80008C0400208DEDB5A0F7C6B03EF168E38863
:101F9000B5F8E43E2D431CEBE2361A3FCDE90E01C5
:101FA000FEF7A3FACDE91201A348007C303809906E
:101FB000FEF78AFBA14AA24BCDE90A01FEF795FA8A
:101FC000CDE90E019C48C07B30380590FEF77CFBC4
:101FD0009C4A9D4BCDE90601FEF787FACDE90A013F
:101FE0009548807B303800E020E10190FEF76CFBE3
:101FF000964A974BCDE90201FEF777FACDE9060143
:102000008D48807A3038642148438B49C97A303909
:102010000A2202FB01018848007B30380844039003
:10202000FEF752FBCDE90401DDE90623FEF7B6F920
:10203000CDE90801DDE90A23FEF7B0F9CDE90C018D
:10204000DDE90E23FEF7AAF9CDE91001DDE912233F
:10205000FEF7A4F9CDE91401DDE91623FEF79EF998
:10206000CDE91801DDE91A23FEF798F9CDE91C0145
:10207000FEF7A6FB7749C8626F48007A30381590A2
:10208000FEF722FB744A754BCDE91601FEF72DFAD7
:10209000CDE91A016848C07930381190FEF714FB79
:1020A0006F4A704BCDE91201FEF71FFACDE9160118
:1020B0006148807930380D90FEF706FB6A4A6B4B19
:1020C000CDE90E01FEF711FACDE912015A48407927
:1020D00030380990FEF7F8FA584A594BCDE90A0111
:1020E000FEF703FACDE90E01534800793038059028
:1020F000FEF7EAFA534A544BCDE90601FEF7F5F92B
:10210000CDE90A014C48C07830380190FEF7DCFA7E
:102110004E4A4F4BCDE90201FEF7E7F9CDE9060142
:102120004548407830384449097830390A2202FB62
:1021300001000390FEF7C8FACDE90401DDE90623AA
:10214000FEF72CF9CDE90801DDE90A23FEF726F9AF
:10215000CDE90C01DDE90E23FEF720F9CDE91001F0
:10216000DDE91223FEF71AF9CDE91401DDE91623A2
:10217000FEF714F9CDE91801DDE91A23FEF70EF98F
:10218000CDE91C01FEF71CFB324988620846806AD3
:102190001590FEF7B7FA1690FEF791FA17902D48B2
:1021A000806A014616901798FEF785F83049189016
:1021B000FEF784F81990FEF7A5FA1D902548806A6D
:1021C0001990FEF79FFA1C902248C06A1590FEF7FE
:1021D00099FA1690FEF773FA17901E48C06A0146E6
:1021E00016901798FEF767F821491890FEF766F8E1
:1021F0001990FEF787FA1B901648C06A1990FEF7EF
:1022000081FA1A90DDE91C01CDE900011EA91148EF
:102210003030DDE91A2302F02FFE2698401CC0B2B0
:102220002690269864287FF764AE03E000200949D1
:10223000C862886227B000BD8C040020FCA9F1D2DE
:102240004D62503F7B14AE47E17A843F9A99999949
:102250009999B93FF00400208DEDB5A0F7C6B03EC6
:10226000F168E388B5F8E43E2D431CEBE2361A3FF3
:102270000024744970B50446002594F82100022812
:1022800003D00420A0630125C1E02068006820F08D
:102290000E00216808602068006820F001002168B5
:1022A00008605C492068884252D95A4978392068C8
:1022B000884201D1012047E05649643920688842AC
:1022C00001D1102040E0534950392068884201D1A3
:1022D000801539E04F493C392068884201D180148B
:1022E00032E04C4928392068884202D14FF48030CE
:1022F0002AE0484914392068884202D14FF48010FE
:1023000022E044492068884201D140041CE042494F
:102310002068884201D1012016E03F49143120682D
:10232000884201D110200FE03B49283120688842C3
:1023300001D1801508E038493C312068884201D13C
:10234000801401E04FF480303349091F086051E0E8
:10235000304978392068884201D1012047E02D4971
:1023600064392068884201D1102040E02949503961
:102370002068884201D1801539E026493C3920681F
:10238000884201D1801432E02249283920688842ED
:1023900002D14FF480302AE01E4914392068884267
:1023A00002D14FF4801022E01A492068884201D1FE
:1023B00040041CE018492068884201D1012016E041
:1023C000154914312068884201D110200FE01249CC
:1023D00028312068884201D1801508E00E493C313F
:1023E0002068884201D1801401E04FF4803009490F
:1023F00080394860012084F8210000BF002084F863
:10240000200000BF606B10B12046616B88472846F2
:1024100070BD0000800002400804024070B5044610
:1024200000F0B6F906462546681C10B1044800784D
:10243000054400BF00F0ACF9801BA842FAD370BD80
:102440002C0000202DE9F847024600239C467BE142
:102450004FF0010808FA03F4D1F8008008EA0400FC
:10246000A0427DD1DFF8F4A2D1F80480A8EB0A09DC
:10247000D0453AD014DCB8F1030F50D009DCB8F1E4
:10248000000F31D0B8F1010F1CD0B8F1020F49D1C3
:1024900020E0B8F1110F18D0B8F1120F42D11EE0B0
:1024A000B9F5881F25D006DCB9F5803F20D0B9F5F5
:1024B000801F37D11AE0B9F5001F18D0B9F5041FF5
:1024C00030D117E0D1F80CC02DE0D1F80C8008F124
:1024D000040C28E0D1F80C8008F1080C23E0D1F8B6
:1024E0000C8008F10C0C1EE000BF00BF00BF00BF55
:1024F00000BF00BFD1F80880B8F1000F02D14FF043
:10250000040C0BE0D1F80880B8F1010F03D14FF0B3
:10251000080C146102E04FF0080C546103E04FF026
:10252000000C00E000BF00BFFF2801D8904601E08A
:1025300002F104084646FF2802D84FEA830803E068
:10254000A3F108084FEA88084746D6F800804FF004
:102550000F0909FA07F928EA09080CFA07F900E057
:102560007AE048EA0908C6F80080D1F8048008F04B
:102570008058B8F1805F6FD100BFDFF8E481D8F8F0
:10258000188048F00108DFF8D891C9F81880C846CB
:10259000D8F8188008F00108CDF8008000BF00BF0F
:1025A0004FEAB9384FEA930958F829504FEA83782F
:1025B0004FEA18794FF00F0808FA09F825EA0805DC
:1025C000DFF8A081424502D14FF0000824E0DFF897
:1025D0009881424502D14FF001081DE0DFF88C815F
:1025E000424502D14FF0020816E0DFF884814245EF
:1025F00002D14FF003080FE0DFF87881424502D1A5
:102600004FF0040808E0DFF87081424502D14FF036
:10261000050801E04FF006084FEA83794FEA19797F
:1026200008FA09F848EA0505DFF850814FEA9309EE
:1026300048F82950D1F8048008F48038B8F5803F74
:102640000BD1DFF83C81D8F8008048EA0008DFF8B9
:102650003091C9F800800AE075E0DFF82481D8F8ED
:10266000008028EA0008DFF81891C9F80080D1F846
:10267000048008F40038B8F5003F0ED1DFF800817F
:1026800008F10408D8F8008048EA0008DFF8F09064
:1026900009F10409C9F800800DE0DFF8E48008F1D1
:1026A0000408D8F8008028EA0008DFF8D49009F17F
:1026B0000409C9F80080D1F8048008F48018B8F53E
:1026C000801F0ED1DFF8B88008F10808D8F8008024
:1026D00048EA0008DFF8A89009F10809C9F8008065
:1026E0000DE0DFF89C8008F10808D8F8008028EA9F
:1026F0000008DFF88C9009F10809C9F80080D1F8CA
:10270000048008F40018B8F5001F0ED1DFF87080BF
:1027100008F10C08D8F8008048EA0008DFF860905B
:1027200009F10C09C9F800800DE0DFF8548008F1C8
:102730000C08D8F8008028EA0008DFF8449009F176
:102740000C09C9F800805B1CD1F8008028FA03F856
:10275000B8F1000F7FF47CAEBDE8F88700001110DF
:102760000010024000080140000C01400010014030
:102770000014014000180140001C01400800014005
:10278000000401400AB1016101E00B0403617047DC
:1027900001480068704700002400002070B504461E
:1027A0000CB9012070BD4CF6CC402168086045F2A0
:1027B000555021680860D4E9001048602168A0687D
:1027C0008860FFF7E5FF054606E0FFF7E1FF401BE5
:1027D000302801D90320E5E72068C0680028F4D13B
:1027E0004AF6AA20216808600020DBE701464AF685
:1027F000AA200A68106000207047000003480068A3
:102800000349097808440149086070472400002002
:102810002C00002010B50848006840F01000064960
:102820000860052000F080F80F2000F007F800F0A5
:102830002BF8002010BD00000020024070B50446B7
:102840000E4800784FF47A71B1FBF0F00C4909683A
:10285000B1FBF0F5284601F006F808B1012070BD83
:10286000102C07D200222146501E00F01EF8054809
:10287000046001E00120F2E70020F0E72C000020D6
:102880001400002028000020704701460846002858
:1028900009DB00F01F0301229A4043099B0003F16A
:1028A000E023C3F8002100BF70472DE9F05F8046A8
:1028B0000D461646002702F007FB074639462A4612
:1028C000334601F00700C0F1070ABAF1040F02D93C
:1028D0004FF0040A01E0C0F1070AD14600F1040AF2
:1028E000BAF1070F02D24FF0000A01E0A0F1030A8B
:1028F000D4464FF0010A0AFA09FAAAF1010A0AEAD3
:10290000020A0AFA0CFA4FF0010B0BFA0CFBABF1BE
:10291000010B0BEA030B4AEA0B042146404602F086
:10292000DBFABDE8F09F000000BF00F00702064B95
:1029300019684FF6FF031940044B0B4343EA022189
:10294000014B196000BF70470CED00E00000FA0574
:1029500070B504460D460CB9012070BD5A48006898
:1029600000F00700A8420ED25748006820F0070088
:102970002843554908600846006800F00700A8424F
:1029800001D00120E9E7207800F0020002281DD1E3
:10299000207800F00400042805D14C48406840F439
:1029A000E0604A494860207800F00800082805D116
:1029B0004648406840F46050444948604348406895
:1029C00020F0F000A168084340494860207800F0FA
:1029D000010078B36068012806D13C48006800F423
:1029E000003090B90120B8E76068022806D1374866
:1029F000006800F0007040B90120AEE7334800687D
:102A000000F0020008B90120A7E73048406820F034
:102A10000300616808432D494860FFF7B9FE064688
:102A200009E0FFF7B5FE801B41F28831884202D9E8
:102A3000032092E707E02548406800F00C00616839
:102A4000B0EB810FEDD12048006800F00700A842EC
:102A50000ED91D48006820F0070028431A49086075
:102A60000846006800F00700A84201D0012074E782
:102A7000207800F00400042807D11448406820F4AE
:102A8000E060E168084311494860207800F00800E0
:102A9000082808D10D48406820F46050216940EAB8
:102AA000C1000A49486000F03FF808494968C1F38D
:102AB0000311074A515CC84006490860064800688F
:102AC000FFF7BCFE002048E7002002400010024053
:102AD000F06D000814000020280000200148006864
:102AE000704700001400002000B5FFF7F7FF04490D
:102AF0004968C1F30221034A515CC84000BD00008F
:102B000000100240006E000800B5FFF7E7FF04491F
:102B10004968C1F3C221034A515CC84000BD0000AE
:102B200000100240006E0008F0B585B00FF26C0C8A
:102B30009CE8E01001A8A0E8E0101CA52D68009515
:102B400000210022002300240020194D696801F0B3
:102B50000C05F5B1042D02D0082D19D101E015485E
:102B600019E001ADC1F38346AC5D01F4803555B188
:102B70000F4D6D68C5F340451DF805200D4D6543AB
:102B8000B5FBF2F302E00C4D04FB05F3184602E03E
:102B900000BF084800BF00BF05B0F0BD0203040538
:102BA000060708090A0B0C0D0E0F10100102000099
:102BB0000010024000127A0000093D00F8B50446FA
:102BC0000CB90120F8BD207800F00100002878D071
:102BD000F848406800F00C0004280CD0F548406824
:102BE00000F00C00082811D1F248406800F4803051
:102BF000B0F5803F0AD1EF48006800F400300028AB
:102C00005FD0606800285CD10120DBE700BF60680E
:102C1000B0F5803F06D1E748006840F48030E549D0
:102C2000086028E0606858B9E248006820F4803005
:102C3000E04908600846006820F4802008601AE037
:102C40006068B0F5A02F0BD1DA48006840F480200E
:102C5000D84908600846006840F4803008600AE0FF
:102C6000D448006820F48030D249086008460068E3
:102C700020F48020086000BF606888B1FFF788FDFD
:102C8000054606E0FFF784FD401B642801D90320B8
:102C900098E7C848006800F400300028F2D010E03F
:102CA000FFF776FD054606E0FFF772FD401B64283E
:102CB00001D9032086E7BF48006800F400300028EF
:102CC000F2D1207800F00200022857D1B9484068BC
:102CD00000F00C0050B1B748406800F00C00082824
:102CE00018D1B448406800F4803098B9B148006801
:102CF00000F0020020B12069012801D0012061E725
:102D0000AC48006820F0F800616940EAC100A949B8
:102D1000086033E02069E8B10120A7490860FFF7A7
:102D200037FD054606E0FFF733FD401B022801D9B9
:102D3000032047E79F48006800F002000028F2D017
:102D40009C48006820F0F800616940EAC100994998
:102D5000086013E0002098490860FFF719FD054658
:102D600006E0FFF715FD401B022801D9032029E7E3
:102D70009048006800F002000028F2D1207800F0AE
:102D8000080008282DD1A069B8B101208B4908603E
:102D9000FFF7FEFC054606E0FFF7FAFC401B0228A1
:102DA00001D903200EE78348406A00F002000028A2
:102DB000F2D0012001F008FC13E000207F490860F8
:102DC000FFF7E6FC054606E0FFF7E2FC401B0228A1
:102DD00001D90320F6E67748406A00F00200002897
:102DE000F2D1207800F00400042873D10027714844
:102DF000C06900F0805070B900BF6E48C06940F0F3
:102E000080506C49C8610846C06900F0805000904D
:102E100000BF00BF01276A48006800F48070B0B9A5
:102E20006748006840F4807065490860FFF7B0FCAF
:102E3000054606E0FFF7ACFC401B642801D90320DF
:102E4000C0E65F48006800F480700028F2D000BF40
:102E5000E068012806D15748006A40F00100554952
:102E6000086227E0E06858B95248006A20F0010083
:102E7000504908620846006A20F00400086219E020
:102E8000E06805280BD14B48006A40F0040049492E
:102E900008620846006A40F0010008620AE04548FE
:102EA000006A20F00100434908620846006A20F0E9
:102EB0000400086200BFE068A0B1FFF769FC0546A6
:102EC00009E0FFF765FC401B41F28831884202D9D6
:102ED000032077E622E03748006A00F0020000286D
:102EE000EFD012E0FFF754FC054608E0FFF750FC76
:102EF000401B41F28831884201D9032062E62D4807
:102F0000006A00F002000028F0D1012F05D1294805
:102F1000C06920F080502749C86100BFE069C8B38C
:102F20002448406800F00C00082860D0E0690228BE
:102F300048D1002020490866FFF72AFC054606E034
:102F4000FFF726FC401B022801D903203AE6194866
:102F5000006800F000700028F2D1206AB0F5803FD0
:102F600007D11448406820F40030A1680843114993
:102F70004860D4E9080108430E49496821F47411F6
:102F800008430C49486001200B490866FFF700FC24
:102F9000054607E03DE0FFF7FBFB401B022801D997
:102FA00003200FE60348006800F000700028F2D00C
:102FB0002FE0000000100240000042428004424224
:102FC00000700040002014490866FFF7E1FB054649
:102FD00006E0FFF7DDFB401B022801D90320F1E5E5
:102FE0000E48006800F000700028F2D111E0E0699E
:102FF000012800D1E6E50948466806F48031206AD8
:10300000814204D106F47011606A814201D001202E
:10301000D8E50020D6E50000000042420010024042
:1030200010B504460CB9012010BD606A00B900BF9C
:10303000A06AB0F5005F00D100BF94F8510028B934
:10304000002084F85000204600F038F8022084F870
:1030500051002068006820F0400021680860D4E931
:1030600001010843E1680843216908436169084395
:10307000218B01F400710843E1690843216A084388
:10308000A16A0843216808600421A06901EA104090
:1030900021684860A06AB0F5005F02D12168E06A4B
:1030A00008612068C06920F400602168C8610020C0
:1030B0006065012084F851000020B5E710B586B0A6
:1030C000044600BF1748806940F480501549886164
:1030D0000846806900F48050019000BF00BF00BF27
:1030E0000846806940F0040088610846806900F065
:1030F0000400019000BF00BFE02002900220039076
:10310000012004900320059002A90748FFF79AF9CF
:10311000102002900120039002A90348FFF792F9C2
:1031200006B010BD00100240000801402DE9F84330
:103130000446884617461D464FF000096068B0F502
:10314000827F0DD1A06858B9042084F851003B4615
:10315000424641462046009500F0FAF9BDE8F88362
:1031600000BF94F85000012801D10220F6E70120A9
:1031700084F8500000BFFFF70BFB064694F851009F
:10318000012802D04FF00209EBE0B8F1000F00D0A7
:1031900017B94FF00109E4E0042084F85100002041
:1031A0006065C4F83880A787E7872063A086E0863B
:1031B00020646064A06AB0F5005F10D100BF206891
:1031C000006820F40050216808602068006840F41E
:1031D00000502168086000BFE08F401EE087A068B3
:1031E000B0F5004F05D12068006820F480402168C8
:1031F00008602068006800F04000402805D0206882
:10320000006840F0400021680860E068F8B91AE002
:103210002068806800F0010050B12068007BA16B3D
:103220000870A06B401CA063E08F401EE0870AE09E
:10323000FFF7AEFA801BA84201D3681C00B915B98C
:103240004FF003098DE0E08F0028E1D11EE01AE085
:103250002068806800F0010050B12068C068A16B50
:103260000880A06B801CA063E08F401EE0870AE00E
:10327000FFF78EFA801BA84201D3681C00B915B96C
:103280004FF003096DE0E08F0028E1D1A06AB0F5AE
:10329000005F39D12068006840F4805021680860E0
:1032A0002068006800F4805028B12068006820F48D
:1032B0008050216808602B46012211462046009666
:1032C00001F023FA10B14FF003094AE0E068B0F5CD
:1032D000006F04D12068C068A16B088003E02068FB
:1032E000007BA16B08702B460122114620460096F8
:1032F00001F00BFA30B1606D40F0020060654FF0F4
:1033000003092EE02068C06832462946204601F0B5
:10331000A9F908B12020606520688068C0F300101A
:10332000D0B1204601F0EEF9012811D1606D40F0D6
:103330000200606500BF2068006820F4005021682A
:1033400008602068006840F400502168086003E0CD
:103350004FF6EF7021688860606D08B14FF0010989
:1033600000BF012084F8510000BF002084F8500005
:1033700000BF4846F2E62DE9F84F04468846164657
:103380001D464FF0000A00BF94F85000012802D1FA
:103390000220BDE8F88F012084F8500000BFFFF73D
:1033A000F7F90746B14694F85100012802D04FF0D2
:1033B000020AC3E0B8F1000F00D016B94FF0010ABD
:1033C000BCE0032084F8510000206065C4F8308020
:1033D000A686E686A063A087E08760642064A06874
:1033E000B0F5004F05D12068006840F480402168A6
:1033F0000860A06AB0F5005F0DD100BF20680068CA
:1034000020F40050216808602068006840F40050F3
:103410002168086000BF2068006800F04000402874
:1034200005D02068006840F0400021680860E0682E
:10343000B0F5006F2FD1606810B1B9F1010F09D15B
:10344000206B00882168C860206B801C2063E08EA0
:10345000401EE0861BE02068806800F00200022821
:103460000AD1206B00882168C860206B801C206313
:10347000E08E401EE0860AE0FFF78AF9C01BA842F2
:1034800001D3681C00B915B94FF0030A56E0E08E6D
:103490000028E0D12EE0606810B1B9F1010F09D128
:1034A000206B007821680873206B401C2063E08E3D
:1034B000401EE0861BE02068806800F002000228C1
:1034C0000AD1206B007821680873206B401C2063B0
:1034D000E08E401EE0860AE0FFF75AF9C01BA842C2
:1034E00001D3681C00B915B94FF0030A26E0E08E3D
:1034F0000028E0D1A06AB0F5005F05D1206800681F
:1035000040F48050216808603A462946204601F080
:10351000E5F808B120206065A06850B900BF002020
:1035200000902068C068009020688068009000BF0C
:1035300000BF606D08B14FF0010A00BF012084F8A0
:10354000510000BF002084F8500000BF504620E723
:103550002DE9FF5F0446884691461D460E9E0120D8
:1035600002900020019000BF94F85000012803D180
:10357000022004B0BDE8F09F012084F8500000BF95
:10358000FFF706F9074694F851B060680390AA4621
:10359000BBF1010F0BD00398B0F5827F04D1A06876
:1035A00010B9BBF1040F02D0022001903DE1B8F147
:1035B000000F03D0B9F1000F00D015B90120019020
:1035C00033E194F85100042802D0052084F851001A
:1035D00000206065C4F83890E587A587C4F830807E
:1035E000E586A58620646064A06AB0F5005F0DD111
:1035F00000BF2068006820F400502168086020683F
:10360000006840F400502168086000BF206800682E
:1036100000F04000402805D02068006840F04000DD
:1036200021680860E068B0F5006F56D1606810B19D
:10363000BAF1010F09D1206B00882168C860206BA6
:10364000801C2063E08E401EE0863FE0206880689A
:1036500000F0020002281CD1E08ED0B102980128AF
:1036600017D1206B00882168C860206B801C206304
:10367000E08E401EE08600200290E08E48B9A06AED
:10368000B0F5005F05D12068006840F480502168E3
:1036900008602068806800F0010068B1E08F58B1D0
:1036A0002068C068A16B0880A06B801CA063E08FBD
:1036B000401EE08701200290FFF76AF8C01BB0426D
:1036C00004D3701C10B103200190AEE0E08E0028FE
:1036D000BCD1E08F0028B9D156E0606810B1BAF1D2
:1036E000010F09D1206B007821680873206B401C02
:1036F0002063E08E401EE08640E02068806800F095
:10370000020002281CD1E08ED0B10298012817D106
:10371000206B007821680873206B401C2063E08ECA
:10372000401EE08600200290E08E48B9A06AB0F505
:10373000005F05D12068006840F48050216808606F
:103740002068806800F0010068B1E08F58B12068FF
:10375000C068A16B0870A06B401CA063E08F401E86
:10376000E08701200290FFF713F8C01BB04201D39D
:10377000701C00B916B90320019056E0E08E0028B5
:10378000BBD1E08F0028B8D1A06AB0F5005F10D19E
:103790003346012211462046009700F0B6FF30B1B3
:1037A000606D40F002006065032001903DE02068FC
:1037B000C06820688068C0F30010E8B1204600F0BF
:1037C000A1FF012814D1606D40F00200606500BFC8
:1037D0002068006820F400502168086020680068B4
:1037E00040F400502168086000BF0120019003E010
:1037F0004FF6EF70216888603A463146204600F067
:103800006DFF20B101200190202060650DE0A068CF
:1038100050B900BF002000902068C0680090206868
:103820008068009000BF00BF00BF012084F85100F5
:1038300000BF002084F8500000BF019899E60428DA
:1038400008D14FF0E021096941F004014FF0E02276
:10385000116107E04FF0E021096921F004014FF008
:10386000E0221161704770B504462546681EB0F12C
:10387000807F01D301200FE0681E4FF0E0214861F6
:103880000F214FF0FF3001F027FB00204FF0E02127
:10389000886107200861002070BD7047704710B52F
:1038A00004460CB9012010BD94F83D0028B9002051
:1038B00084F83C00204600F00DF8022084F83D001A
:1038C000211D206800F0F0FF012084F83D00002059
:1038D000E9E7000038B504460D492068884215D153
:1038E00000BF0C48C06940F002000A49C8610846A0
:1038F000C06900F00200009000BF00BF0322012158
:103900001D20FEF7D2FF1D20FEF7BFFF38BD0000CF
:10391000000400400010024001460868C06840F002
:1039200001000B68D8600868806800F00702062A6A
:1039300005D00868006840F001000B68186000209E
:103940007047704710B5044620680069C0F3400016
:10395000D8B12068C068C0F34000B0B16FF0020079
:1039600021680861012020772068806900F0030049
:1039700018B12046FFF7E5FF05E0204600F0ADF85E
:10398000204600F0ABF80020207720680069C0F3E3
:103990008000D8B12068C068C0F38000B0B16FF07B
:1039A000040021680861022020772068806900F403
:1039B000407018B12046FFF7C4FF05E0204600F034
:1039C0008CF8204600F08AF80020207720680069F3
:1039D000C0F3C000D8B12068C068C0F3C000B0B167
:1039E0006FF0080021680861042020772068C06912
:1039F00000F0030018B12046FFF7A3FF05E02046C2
:103A000000F06BF8204600F069F80020207720686D
:103A10000069C0F30010D8B12068C068C0F300107E
:103A2000B0B16FF01000216808610820207720688D
:103A3000C06900F4407018B12046FFF782FF05E02E
:103A4000204600F04AF8204600F048F80020207791
:103A50002068006900F0010058B12068C06800F0DB
:103A6000010030B16FF0010021680861204600F0CC
:103A700037F820680069C0F3C01058B12068C068EA
:103A8000C0F3C01030B16FF080002168086120469B
:103A9000FFF703FF20680069C0F3801058B1206869
:103AA000C068C0F3801030B16FF040002168086139
:103AB000204600F02DF820680069C0F3401058B18E
:103AC0002068C068C0F3401030B16FF0200021685A
:103AD00008612046FFF7E2FE10BD70477047000006
:103AE000084988420CD108490968491C064A1160F6
:103AF0000649096809B9012100E00021034A116063
:103B000070470000B40600205C000020A481214220
:103B1000704770472DE9F047044620680568206823
:103B2000C668206847694FF00008C14605F00F08D5
:103B3000B8F1000F0AD105F0200038B106F02000DE
:103B400020B1204600F028FFBDE8F087B8F1000F53
:103B50006DD007F0010018B906F49070002866D007
:103B600005F0010030B106F4807018B1E06B40F050
:103B70000100E06305F0040030B107F0010018B166
:103B8000E06B40F00200E06305F0020030B107F0A6
:103B9000010018B1E06B40F00400E06305F008009C
:103BA00030B107F0010018B1E06B40F00800E063AD
:103BB000E06B68B305F0200028B106F0200010B1DA
:103BC000204600F0E9FE20684069C0F38019E06BF0
:103BD00000F0080010B9B9F1000F22D0204600F023
:103BE000BBFE2068406900F04000B0B12068406929
:103BF00020F0400021684861606B50B11748616B4C
:103C00004863606BFEF736FB10B1606B416B884711
:103C10000CE02046FFF77DFF08E02046FFF779FF24
:103C200004E02046FFF775FF0020E0638CE705F015
:103C3000800030B106F0800018B1204600F0D0FFBF
:103C400082E705F0400030B106F0400018B1204690
:103C500000F092FE78E700BF76E7000045490008D3
:103C600010B504460CB9012010BDA06900B100E0F8
:103C700000BF94F8390028B9002084F838002046A5
:103C800000F028F8242084F839002068C06820F467
:103C900000502168C860204600F0D2FE206800690C
:103CA00020F49040216808612068406920F02A00D3
:103CB000216848612068C06840F400502168C860ED
:103CC0000020E063202084F8390084F83A000020C6
:103CD000CAE7000010B586B004464949206888420A
:103CE00044D100BF4748806940F0040045498861DD
:103CF0000846806900F00400019000BF00BF00BFCB
:103D00000846806940F4804088610846806900F474
:103D10008040019000BF00BF00BF0846806940F0AE
:103D2000010088610846806900F00100019000BF31
:103D300000BF481502900220039001200490032048
:103D4000059002A93048FEF77DFB4FF48060029099
:103D50000020039002A92C48FEF774FB2520FEF7F3
:103D600094FD032211462520FEF79FFD2749206878
:103D7000884243D100BF2348806940F004002149B4
:103D800088610846806900F00400019000BF00BF10
:103D900000BF0846C06940F40030C8610846C069E9
:103DA00000F40030019000BF00BF00BF08468069EA
:103DB00040F0010088610846806900F00100019030
:103DC00000BF00BF04200290022003900120049055
:103DD0000320059002A90C48FEF734FB082002904E
:103DE0000020039002A90848FEF72CFB2620FEF7CE
:103DF0004CFD012200212620FEF757FD06B010BD24
:103E0000003801400010024000080140004400401A
:103E100010B5034693F83A0020282FD101B10AB912
:103E2000012010BD00BF93F83800012801D1022005
:103E3000F7E7012083F8380000BF99629A85DA8598
:103E40000020D863222083F83A0000BF002083F8C6
:103E5000380000BF1868C06840F480701C68E060DB
:103E60001868406940F001001C6860611868C0680B
:103E700040F020001C68E0600020D2E70220D0E77C
:103E80007047704700BFFEE710B50248FEF7AEFC72
:103E900010BD0000F405002070B504460D4604482E
:103EA00004490860084644608560FEF777FC70BDF1
:103EB00000300040F405002000B585B000BF2A485E
:103EC000806940F00400284988610846806900F054
:103ED0000400009000BF00BF00BF0846806940F0AA
:103EE000080088610846806900F00800009000BF63
:103EF00000BF00BF0846806940F010008861084696
:103F0000806900F01000009000BF00BF4FF4004037
:103F1000019001200290032004900120039001A948
:103F20001248FEF78FFA0122D1031048FEF72AFC4F
:103F30004FF44070019001A90D48FEF783FA00226A
:103F40004FF440710A48FEF71DFC4FF400500190F9
:103F500001A90848FEF776FA00224FF400510548FF
:103F6000FEF710FC05B000BD001002400008014043
:103F7000000C01400010014010B51FA327A22AA188
:103F80002CA000F069FF4FF4967001F059FD33A0AA
:103F900000F062FF4FF4967001F052FD39A13D48E8
:103FA000FCF70CF93C49086005E036A13948FCF7FC
:103FB00005F939490860384800680028F5D0FDF750
:103FC0009BFB36A000F048FF4FF4967001F038FDDF
:103FD0003BA13048FCF7F2F82F49086005E038A112
:103FE0002C48FCF7EBF82C4908602B4800680028A7
:103FF000F5D0FDF781FB10BD3934353835306233EB
:1040000065663164613965613764663039663135BA
:104010003734623862366536000000007169655FCA
:104020006469616E360000006B30687A744F3851F5
:104030006266490041542B514D544346473D22612D
:104040006C6961757468222C302C222573222C2215
:104050002573222C222573220D0A000041542B5176
:104060004D544F50454E3D302C223133392E31398D
:10407000362E3133352E313335222C313838330D4D
:104080000A0000002B514D544F50454E3A20302C21
:1040900030000000900300204000002041542B51CC
:1040A0004D54434F4E4E3D302C22636C69656E7407
:1040B0004578616D706C655F31393837220D0A00C3
:1040C0002B514D54434F4E4E3A20302C302C300063
:1040D00000BFFEE72DE9F043EDB006468846914665
:1040E0001C46749F70221E4951A8FCF743F8D4E97E
:1040F0001001CDE91001D4E90E01CDE90E01D4E99A
:104100000C01CDE90C01D4E90A01CDE90A01D4E999
:104110000801CDE90801D4E90601CDE90601D4E999
:104120000401CDE90401D4E90201CDE90201D4E999
:1041300000013A46CDE9000151A912A800F09CFE09
:1041400012A8FCF74DF8C5B22A4612A93046FCF772
:1041500011F80448056028466DB0BDE8F083000002
:10416000206F0008100000202DE9F043F3B0064650
:10417000884691461C467A9F8022204953A8FBF727
:10418000F9FFD4E91201CDE91201D4E91001CDE91A
:104190001001D4E90E01CDE90E01D4E90C01CDE9FD
:1041A0000C01D4E90A01CDE90A01D4E90801CDE9FD
:1041B0000801D4E90601CDE90601D4E90401CDE9FD
:1041C0000401D4E90201CDE90201D4E900013A4633
:1041D000CDE9000153A914A800F04EFE14A8FBF786
:1041E000FFFFC5B22A4614A93046FBF7C3FF0448B7
:1041F0000560284673B0BDE8F0830000A06E00089B
:10420000100000202DE9F04FADF5017D06461C465B
:104210008A9FA822394957A8FBF7ACFF3849C86ADA
:10422000FCF770FA1490FCF74AFA83463448C16AE6
:104230005846FCF740F882463249FCF73FF8814681
:10424000FCF760FA80462E49C86AFCF75BFA2C49F5
:104250001790886AFCF756FA1490FCF730FA8346F8
:104260002748816A5846FCF726F882462549FCF71C
:1042700025F88146FCF746FA21491690886AFCF732
:1042800041FA1590DDE915121798CDE91208CDE92C
:104290001012D4E90E01CDE90E01D4E90C01CDE9EB
:1042A0000C01D4E90A01CDE90A01D4E90801CDE9FC
:1042B0000801D4E90601CDE90601D4E90401CDE9FC
:1042C0000401D4E90201CDE90201D4E900013A4632
:1042D000CDE9000157A918A800F0CEFD18A8FBF7FA
:1042E0007FFFC5B22A4618A93046FBF743FF0648B0
:1042F000056028460DF5017DBDE8F08F906F000840
:10430000F00400200024744910000020704770471A
:1043100030B5C3B0FDF7E0FB1648174B00901748C7
:1043200002781748017801A8FFF7D4FE0446224618
:1043300014A140A800F0A0FD40AA13A120A000F005
:104340008BFD642001F07CFB214601A800F06CFD90
:1043500023A12848FBF732FF054604E020A12548A9
:10436000FBF72CFF0546002DF8D0FDF767FB43B0A7
:1043700030BD000070000020E80000200100002097
:1043800000000020256400002F7379732F6B3068C4
:104390007A744F38516266492F7169655F6469614B
:1043A0006E362F7468696E672F6576656E742F7030
:1043B000726F70657274792F706F737400000000F3
:1043C00041542B514D5450554245583D302C302CC2
:1043D000302C302C222573222C25730D0A0000006E
:1043E0002B514D5450554245583A20302C302C30EA
:1043F000000000009003002030B5C3B0FDF76CFB57
:104400001648174B0090174802781748017801A802
:10441000FFF7AAFE0446224614A140A800F02CFD96
:1044200040AA13A120A000F017FD642001F008FBB2
:10443000214601A800F0F8FC23A12848FBF7BEFEA6
:10444000054604E020A12548FBF7B8FE0546002DEF
:10445000F8D0FDF7F3FA43B030BD00007000002043
:104460003001002001000020000000202564000031
:104470002F7379732F6B30687A744F3851626649A5
:104480002F7169655F6469616E362F7468696E6744
:104490002F6576656E742F70726F70657274792FE8
:1044A000706F73740000000041542B514D545055EF
:1044B0004245583D302C302C302C302C2225732294
:1044C0002C25730D0A0000002B514D5450554245C8
:1044D000583A20302C302C3000000000900300208F
:1044E00030B5C3B0FDF7F8FA1648174B00901748DF
:1044F00002781748017801A8FFF784FE0446224697
:1045000014A140A800F0B8FC40AA13A120A000F01C
:10451000A3FC642001F094FA214601A800F084FC79
:1045200023A12848FBF74AFE054604E020A12548C0
:10453000FBF744FE0546002DF8D0FDF77FFA43B0A7
:1045400030BD000070000020A80000200100002005
:1045500000000020256400002F7379732F6B3068F2
:104560007A744F38516266492F7169655F64696179
:104570006E362F7468696E672F6576656E742F705E
:10458000726F70657274792F706F73740000000021
:1045900041542B514D5450554245583D302C302CF0
:1045A000302C302C222573222C25730D0A0000009C
:1045B0002B514D5450554245583A20302C302C3018
:1045C000000000009003002008B508490968C908E8
:1045D0004FF47A72B1FBF2F14143009100BF00BF8A
:1045E00000994A1E00920029F9D108BD140000204C
:1045F00010B51248124908604FF4827048600021DB
:104600000F488160C16001610121416149028161FE
:104610003821C16100210162416281620721C162CA
:10462000FEF7FEFC06480068006840F040000449C0
:1046300009680860FF2000F005F810BD0030014057
:104640000006002001B582B04FF47A70012301AA60
:1046500002A900900248FEF77BFF9DF804000EBD02
:1046600000060020F8B504460E4615466068B0F511
:10467000827F0DD1A068B0F5004F03D0A068B0F5DF
:10468000806F05D12068006820F040002168086034
:104690006068B0F5827F11D1A068B0F5806F0DD150
:1046A0003346002201212046009500F02EF898B1F3
:1046B000606D40F0200060650320F8BD33460022A5
:1046C00080212046009500F020F828B1606D40F070
:1046D000200060650320F0E70020EEE7F8B504460F
:1046E0000D4616462B46002280212046009600F0FB
:1046F0000CF828B1606D40F0200060650320F8BD23
:104700000020FCE70146012070472DE9F0410446F6
:104710000E4617461D46DDF818803EE0681CD8B3EB
:10472000FEF736F8A0EB0800A84200D2A5BB20682F
:10473000406820F0E000216848606068B0F5827F42
:104740000DD1A068B0F5004F03D0A068B0F5806F20
:1047500005D12068006820F0400021680860A06A48
:10476000B0F5005F0DD100BF2068006820F4005054
:10477000216808602068006840F4005021680860E3
:1047800000BF012084F8510000BF002084F85000D1
:1047900000BF0320BDE8F081FFE72068806830405B
:1047A000B04201D1012000E00020B842B6D1002083
:1047B000F0E7704730B58FB0054600240120059022
:1047C000000406900020079002200C90C1030D9178
:1047D0000E9505A8FEF7F2F904460CB100BFFEE7FE
:1047E0000F20009002200190002002904FF4806082
:1047F00003900020049002216846FEF7A9F80446C1
:104800000CB100BFFEE70FB030BD10B5FDF7F6FFED
:1048100010BD00001148006840F001000F49086019
:10482000084640680E4908400C4948600846006840
:104830000C490840094908600846006820F48020B7
:1048400008600846406820F4FE0048604FF41F00EE
:104850008860C803044908607047000000100240E7
:104860000000FFF8FFFFF6FE08ED00E010B502487B
:10487000FFF768F810BD0000B406002070B50546CB
:104880000C460748074908600846446000218160DB
:10489000C5600161FFF703F80248FFF73DF870BDFE
:1048A00000040040B406002010B50268204B984276
:1048B0000ED0204B98420BD0B0F1804F08D01E4B49
:1048C000984205D01D4B984202D01D4B984203D10F
:1048D00022F070024B681A43154B98420ED0154BCC
:1048E00098420BD0B0F1804F08D0134B984205D0BE
:1048F000124B984202D0124B984203D122F44072DC
:10490000CB681A4322F080034C6943EA0402026038
:104910008B68C3620B688362054B984202D0054BDB
:10492000984201D10B6903630123436110BD00006C
:10493000002C014000340140000400400008004009
:10494000000C004070B505466C6A0020E085E084EC
:104950002046FFF7DEF870BD0168C96821F4907148
:104960000268D1600168496921F001010268516162
:10497000202180F83A10704710B504462068C068BE
:1049800020F040002168C860202084F839002046CB
:10499000FFF777FA002010BD70B5044694F83A008E
:1049A00022284AD1A068B0F5805F13D1A56A20699A
:1049B00040B920684068C0F308002880A06A801CC5
:1049C000A06219E020684068C0B22880A06A401C3C
:1049D000A06211E0206938B920684068C1B2A26ABB
:1049E000501CA062117007E02068406800F07F0151
:1049F000A26A501CA0621170E08D401E80B2E0855A
:104A0000C8B92068C06820F020002168C86020680C
:104A1000C06820F480702168C8602068406920F078
:104A2000010021684861202084F83A002046FFF701
:104A300027FA002070BD0020FCE70220FAE7000002
:104A400070B504462168096921F44051E2681143B8
:104A5000226811612269A1681143626941EA020575
:104A60002168C96841F20C62914329432268D160F0
:104A70002168496921F44071A2691143226851619A
:104A8000564A2168914254D1FEF73EF800EBC0012E
:104A900001EB001162689200B1FBF2F100EBC00281
:104AA00002EB001263689B00B2FBF3F26423B2FBDB
:104AB000F3F202EBC20303EB0212A1EB82013222FA
:104AC00002EB01116422B1FBF2F101F0F00100EB05
:104AD000C00202EB001263689B00B2FBF3F2642396
:104AE000B2FBF3F201EB021200EBC00101EB00118B
:104AF00063689B00B1FBF3F100EBC00303EB001311
:104B00006668B600B3FBF6F36426B3FBF6F303EB7B
:104B1000C30606EB0313A1EB8301322303EB011160
:104B20006423B1FBF3F101F00F011144226891609D
:104B300053E0FDF7D9FF00EBC00101EB0011626803
:104B40009200B1FBF2F100EBC00202EB00126368CD
:104B50009B00B2FBF3F26423B2FBF3F202EBC2035D
:104B600003EB0212A1EB8201322202EB011164225B
:104B7000B1FBF2F101F0F00100EBC00202EB001218
:104B800063689B00B2FBF3F26423B2FBF3F201EB28
:104B9000021200EBC00101EB001163689B00B1FB46
:104BA000F3F100EBC00303EB00136668B600B3FB40
:104BB000F6F36426B3FBF6F303EBC30606EB03132D
:104BC000A1EB8301322303EB01116423B1FBF3F169
:104BD00001F00F0111442268916070BD003801405E
:104BE000014691F8390021282CD18868B0F5805F02
:104BF0000FD10A6A1088C0F308000B685860086972
:104C000018B9086A801C086209E0086A401C08623A
:104C100005E00B6A581C086218780B685860C88C4D
:104C2000401E80B2C88458B90868C06820F080006F
:104C30000B68D8600868C06840F040000B68D86016
:104C4000002070470220FCE710B5002024490860CE
:104C500024480068006824490840884201D10120A6
:104C600000E00020B8B32148006881B220480088E5
:104C7000401C80B21E4A10801E4A22F810101C48A8
:104C800000881338114631F8100003281CD1184849
:104C90000088143831F810001E2815D10120104961
:104CA000086000240BE012480088113820441149A4
:104CB00031F81000104921F81400601CC4B2102C07
:104CC000F1DB00200A49088009480088632802DDDA
:104CD0000020074908800348FEF71CFF10BD0000B4
:104CE0000400002048020020200000100438014089
:104CF0003C000020C80200208400002010B50021E4
:104D0000414A1160414A1170414909680968C1F37B
:104D10004011002976D03F490968CAB23E490B7854
:104D20000978491C3C4C21703C49CA5421460978F9
:104D3000C91E3A4A515C2B292BD121460978891F7B
:104D4000515C3A2925D1214609780939515C3A2923
:104D50001FD1214609780F39515C2F2919D12146DD
:104D600009781239515C2F2913D10121264A11608B
:104D7000002009E02849097814390144274A515C88
:104D8000274A1154411CC8B21428F3DB0021224ADF
:104D90001170214909781639204A515C3A2931D1DC
:104DA0001D4909781739515C53292BD11A490978C3
:104DB0001839515C422925D1174909781939515CB4
:104DC0004C291FD1144909781A39515C512919D13C
:104DD000114909781B39515C2B2913D101210B4A48
:104DE0001170002009E00C490978123901440B4A7E
:104DF000515C0C4A1154411CC8B21328F3DD002148
:104E0000054A117010BD0000080000200C000020B1
:104E100088020020044400403E000020900300204F
:104E2000700000208C04002010B5024600200BE02A
:104E300000BF074B1B6803F04003002BF9D0135C45
:104E4000034C241D2360401C8842F1DB10BD000090
:104E50000044004000BFFEE70FB4054B10B503A9A6
:104E6000044A029800F09AF910BC5DF814FB0000A7
:104E7000A15A0008340000200FB4084B10B504A953
:104E800002AA039800F08AF9044602A9002000F063
:104E90001CFD204610BC5DF814FB0000CB58000838
:104EA000490050EAC12018BF04204A0D18BF40F045
:104EB000010040F2FF72B2EB515F08BF40F0020008
:104EC000012808BF0520704702480068C0F302208F
:104ED000704700000CED00E010B5002804DB0A0765
:104EE000130E054A135406E00A07140E034A00F095
:104EF0000F031B1FD45410BD00E400E018ED00E0C8
:104F00002DE9F0414F1E00EBC7010446D1E9000135
:104F100015461E4637F006020DD02A463346FBF7EB
:104F2000E4FA7F1E04EBC703D3E90023FBF736FA4C
:104F300037F00602F1D1022F25D0042F13D0062F0F
:104F400018BFBDE8F0812A463346FBF7CEFAD4E914
:104F50000A23FBF723FA2A463346FBF7C6FAD4E9BD
:104F60000823FBF71BFA2A463346FBF7BEFAD4E9BF
:104F70000623FBF713FA2A463346FBF7B6FAD4E9C1
:104F80000423FBF70BFA2A463346FBF7AEFAD4E9C3
:104F90000223FBF703FA2A463346FBF7A6FAD4E9C5
:104FA0000023BDE8F041FBF7F9B9000000221346E9
:104FB00010460149FBF70BBB0000F03FFBF7EEB9D1
:104FC0000022134610461146FBF701BB40F20132A6
:104FD00000204FF0E041FBF71BBD0000024A00201B
:104FE0001107FBF715BD000001FDFFFF02E008C837
:104FF000121F08C1002AFAD170477047002001E053
:1050000001C1121F002AFBD170470000014908604E
:1050100070470000680000202DE9FF5F82B000218A
:10502000DDE90430020DDDF840B0034318D044F64A
:105030001050A2F2FF3242431514119801281FD0DC
:10504000A5EB0B00401C5FEA000A4FF000064E4F34
:10505000DFF83891B046504615D5CAF1000413E088
:10506000119801244AA3012801D16FEA0B0102988B
:10507000119AC0E90031C0E9024206B0BDE8F09FD4
:10508000CBF10000DFE704460021404A491842EB1B
:105090000450CDE9001012E0E00707D032463B464D
:1050A00040464946FBF721FA8046894632463B4650
:1050B00010461946FBF719FA06460F466410002CF5
:1050C000EAD1DDE90401DDE90023BAF1000F06DAD7
:1050D000FBF70BFA42464B46FBF707FA05E0FBF7F6
:1050E00076FA42464B46FBF772FA04460E46002219
:1050F000284BFBF74DFB03D84FF0FF30014607E08C
:105100000022254B20463146FBF748F9FBF797FC78
:10511000102409E0002C0ADB0A220023FBF782FBA3
:10512000039B30321A55641E50EA0102F2D1641C0E
:10513000039AC4F111031444119A012A03D00122E5
:1051400008430DD10AE0084304D000204FF0110BB2
:10515000119072E7A3EB0B056D1E0DE05B4504DDBE
:105160004FF0000205F1010504E003DA4FF0000200
:10517000A5F10105002AECD002981199C0E902318D
:10518000C0E9004579E70000000014400000F03F4E
:10519000300000000000F0430000E03F2DE9FF4F29
:1051A00095B09B468946064600250FE2252877D113
:1051B00000242746F84A0121059400E0044316F82C
:1051C000013F203B01FA03F01042F7D130782A2842
:1051D00011D06FF02F033078A0F13002092A16D8D1
:1051E000059A44F0020402EB820203EB42021044EF
:1051F000761C0590EFE759F8042B0592002A03DA94
:10520000504244F40054059044F00204761C307877
:105210002E2816D116F8010F44F004042A280DD0C8
:105220006FF02F023078A0F13003092B09D807EB7B
:10523000870302EB4303C718761CF3E759F8047B96
:10524000761C30786C280FD006DC4C2817D06828E4
:105250000DD06A2814D104E0742810D07A280FD118
:105260000DE044F400140AE044F4801401E044F436
:1052700040147278824202D104F58014761C761CA8
:10528000307866280BD013DC582877D009DC00284A
:1052900075D04528F6D04628F4D047281AD19DE18C
:1052A00018E0632835D0642879D0652812D195E1BB
:1052B000702873D008DC6728F1D069286FD06E2879
:1052C0000DD06F2806D1B5E073282CD0752875D085
:1052D000782874D05A46179990476D1C75E1C4F32D
:1052E0000250022809D003280DD0D9F80010042854
:1052F0000DD00D6009F1040967E1D9F80010EA1733
:10530000C1E90052F6E7D9F800100D80F2E70D7000
:10531000F0E719F8041B8DF8001000208DF801004B
:10532000EA46012003E059F804AB4FF0FF30610773
:105330004FF0000102D40DE008F101018846B942A6
:105340000FDA8045F8DB1AF808100029F4D108E0DC
:1053500008F1010188468142FADB1AF80810002999
:10536000F6D105985B46A0EB080721463846179A08
:1053700000F094FA284400EB080507E04DE029E12D
:105380000DE01AF8010B5A4617999047B8F1010839
:10539000F7D25B4621463846179A13E142E00A22CB
:1053A0000092C4F302524FF0000A022A08D059F8C2
:1053B00004CB032A4FEAEC710AD00DE029E02AE081
:1053C00009F1070121F00702F2E802C1914609E064
:1053D0000FFA8CFC4FEAEC71042A03D14FFA8CFCD3
:1053E0004FEAEC71002907DA0A460021DCF1000CD3
:1053F00061EB02012D2202E0220504D52B228DF85B
:105400000420012203E0E20701D02022F7E79046C2
:1054100059E00A2102E010220DE010214FF0000AAD
:1054200000910BE010224FF0000A44F0040408271A
:10543000009203E008224FF0000A0092C4F30252E7
:10544000022A05D059F804CB0021032A08D009E02C
:1054500009F1070121F00702F2E802C1914605E0D7
:105460001FFA8CFC042A01D10CF0FF0C4FF000084D
:10547000220728D5702806D0009B83F0100353EA3A
:105480000A0305D00EE040228DF80420012208E036
:105490005CEA010206D030228DF804208DF8050068
:1054A00002229046009B83F0080353EA0A030AD1C4
:1054B0005CEA010201D1620705D530228DF8042093
:1054C0004FF001087F1E582804D034A003900EA886
:1054D00002900DE036A0F9E753466046009AFBF7CC
:1054E000A1F984460398825C0298401E02900270E3
:1054F0005CEA0100F0D1029806A9081A00F1200A1E
:10550000600702D524F4803400E00127574502DD0E
:10551000A7EB0A0000E0002000EB0A0100900598CC
:105520004144401A0590E00306D45B462146179A91
:10553000059800F0B3F90544002706E001A85A4693
:10554000C05D179990476D1C7F1C4745F6DBE00353
:105550000CD55B462146179A059800F09FF9054443
:1055600004E030205A46179990476D1C0099481E58
:1055700000900029F5DC08E0029802995A4600786C
:10558000491C0291179990476D1CBAF10001AAF1CC
:10559000010AF1DC65E100000928010030313233F5
:1055A000343536373839616263646566000000005F
:1055B0003031323334353637383941424344454649
:1055C0000000000000F058F90544761C30780028EF
:1055D0007FF4ECAD19B02846BDE8F08F620700D427
:1055E000062709F1070222F0070CFCE80223E14636
:1055F00003F000485FEA080C02D00FF2702C0DE0B7
:105600005FEA045C02D50FF2682C07E05FEAC47C15
:1056100002D00FF2602C01E0AFF2700C4FF0FF38B7
:1056200023F00043CDF850C065280CD006DC452897
:1056300009D046281DD047283DD13DE0662818D026
:1056400067287ED138E00021112F01DB112000E016
:10565000781CCDE9000106A90EA8FFF7DDFCDDE905
:105660000F010E9A03910021009207F1010A0491A3
:105670004DE04FF000400097CDE9011006A90EA8BB
:10568000FFF7CAFCDDE90F0203920E9B119900227D
:10569000DDF80CA00093049211B9791C00EB010A0B
:1056A000B7EB0A0004D4C0F1FF3007F1010A0490FF
:1056B000AAEB0700019044E0012F00DA0127002146
:1056C000112F01DD112000E03846CDE9000106A9C7
:1056D0000EA8FFF7A1FCDDE90F010E9A039100214E
:1056E00004910092BA4621070CD40399514500DA7F
:1056F0008A46BAF1010F05DD009AAAF10101515C59
:10570000302908D0B84202DA10F1040F06DA01217C
:10571000CDE9011015E0AAF10101E9E7002805DC57
:10572000049901440491AAEB000102E0411C514597
:1057300000DD8A460499401A401C01904FF0004059
:105740000290200704D40198504501DBCDF8048075
:1057500000208DF84F0002980DF14F07B0F1004F77
:1057600025D02B200E9002984FF0020800280CDA6A
:10577000404202902D200E9007E00A210298FBF78C
:105780003BF83031029007F8011DB8F10001A8F193
:105790000108F2DC02980028EFD1791E0E980870FB
:1057A000307800F0200040F0450007F8020D12A804
:1057B000C01B00F107081498007800B1012000EB2D
:1057C0000A01019801EBE07105984144401A401E1E
:1057D0000590E00306D45B462146179A059800F031
:1057E0005DF805441498007818B15A461799904707
:1057F0006D1CE00324D55B462146179A059800F0FE
:105800004DF805441CE00498002807DBDDE903019E
:10581000884203DD0098405C179901E01799302019
:105820005A469047049805F10105401C04900198E0
:10583000401E019004D12E205A46179990476D1CA6
:10584000BAF10001AAF1010ADDDC05E017F8010B4D
:105850005A46179990476D1CB8F10001A8F101084C
:10586000F4DC5B462146179A0598ABE62D00000054
:105870002B000000200000002DE9F0410446002527
:105880001E461746880404D405E039462020B04758
:105890006D1C641EF9D52846BDE8F0812DE9F04164
:1058A000044600251E469046C80301D5302700E077
:1058B0002027880404D505E041463846B0476D1CD2
:1058C000641EF9D52846BDE8F0810A68531C0B60B8
:1058D0001070704770B5044622E02568A08900F476
:1058E000807020B9A06810B1A068FFF7F3FFA0890D
:1058F00000F4807028B9206918B10B492069096843
:105900008847A08900F4007028B9206A18B10649B8
:10591000206A0968884720460349096888472C4659
:10592000002CDAD170BD00002000002070B50546C3
:105930000E46AC6800E024682CB13146206A00F0C5
:105940004FF80028F7D1204670BD000010B5282080
:1059500005490968884704461CB128212046FAF702
:1059600022FC204610BD00001C00002010B504469B
:1059700000221146204600F001F810BD2DE9F04745
:1059800080460D4616460024FFF7E0FF074600203C
:10599000124908600FB9BDE8F087404601F0C0F930
:1059A00081464946384600F071FC044624B9384621
:1059B000FFF790FF0020EEE766B1204601F0B0F956
:1059C0000446207830B13846FFF784FF034804606E
:1059D0000020E0E705B12C603846DCE71800002025
:1059E00070B504460D462CB9AC4201D0012070BD03
:1059F0000020FCE70DB90120F9E705E0207808B99F
:105A00000020F4E7641C6D1C2078FAF7ADFB064615
:105A10002878FAF7A9FB8642F0D02078FAF7A4FBA1
:105A200006462878FAF7A0FB301AE0E710B50446DE
:105A30000420FDF704FF0148046010BD3000002081
:105A400030B50446002504E04FF47A7000F004F805
:105A50006D1CA542F8D330BD70B5034600224FF04F
:105A6000E02675690D4E366803FB06F44FF0E0261C
:105A7000B16910E04FF0E026B06988420BD088424F
:105A800002D20E1A324402E02E1A0E44324401466B
:105A9000A24200D300E0EDE700BF70BD300000205F
:105AA00000BF054A126802F04002002AF9D0C2B2D3
:105AB000014B1B1D1A6070470044004010B50028C0
:105AC00021D0114B0022001F196803E0814203D846
:105AD0000A4649680029F9D152B11368841A9C42D8
