:020000040800F2
:10000000701A002001010008591C0008AD1A0008F0
:100010002D1C000861110008E12900080000000003
:10002000000000000000000000000000A9220008FD
:100030004D130008000000000721000811240008EB
:100040001B0100081B0100081B0100081B01000820
:100050001B0100081B0100081B0100081B01000810
:100060001B0100081B0100081B0100081B01000800
:100070001B0100081B0100081B0100081B010008F0
:100080001B0100081B0100081B0100081B010008E0
:100090001B0100081B0100081B0100081B010008D0
:1000A0001B0100081B0100081B0100081B010008C0
:1000B0001B010008752400081B0100081B01000833
:1000C0001B0100081B0100081B0100081B010008A0
:1000D0001B0100082D26000865260008D12600080F
:1000E0001B0100081B0100081B010008DFF80CD0F1
:1000F00000F060FC0048004765340008701A0020DA
:100100000648804706480047FEE7FEE7FEE7FEE7B1
:10011000FEE7FEE7FEE7FEE7FEE7FEE71524000840
:10012000ED00000840EA01039B0703D009E008C97D
:10013000121F08C0042AFAD203E011F8013B00F8AC
:10014000013B521EF9D27047D2B201E000F8012BF8
:10015000491EFBD270470022F6E710B513460A4647
:1001600004461946FFF7F0FF204610BD421E12F864
:10017000013F002BFBD111F8013B02F8013B002BA2
:10018000F9D1704730B505462A460B4612F8010BE7
:1001900013F8014B08B1A042F8D01CB1002802D0DE
:1001A0006D1CF1E7284630BD421C10F8011B0029E8
:1001B000FBD1801A7047F0B480EA0102D40F4200EC
:1001C000B2EB410F02D20246084611464A0042D025
:1001D000C30DDDB2C1F3C752AD1A202D35DAC1F31C
:1001E000160141F4000204B15242C5F1200602FAA0
:1001F00006F12A411044B3EBD05F23D0C4B1012DE6
:10020000A0EBC35009DCF0BC4FF0004202EAC3523D
:10021000DBB200F5000000F012BB400000F180707E
:1002200000EBC350A0F1807040EAD170490009E0B2
:10023000490841EAC071A0EBC35000F50000400836
:1002400000EBC350F0BC00F0F1BA6142012202EBB6
:100250004101001BF6E7F0BC704781F00041AAE7BE
:1002600080F00040A7E780EA010210B502F00043E9
:10027000400022D04A001FD0010E01EB1261C0F3F2
:100280005600C2F3560240F4000042F40002A0FB04
:10029000022000047F39140400D0401C50EA1240B0
:1002A00001D44000491EC2B20C0604EBD010401C21
:1002B0004008802A02D003E0002010BD20F0010099
:1002C000002900DA0020184310BD30B480EA010292
:1002D00002F0004530F0004221F0004013D090B110
:1002E000C30DD40DC2F31601C0F31600E41A41F495
:1002F000000140F400027D34914201D3641C00E00F
:100300004900002C02DA30BC002070474FF4000096
:100310000023914201D3891A034340084FEA410167
:10032000F7D151B1914202D14FF0004105E002D224
:100330004FF0010101E06FF0010103EBC4502844CC
:1003400030BC00F073BA2DE9FE4F804681EA03000D
:10035000C00F0C46009021F0004123F00045B8EB9F
:100360000200A94105D24046214690461C460B4654
:10037000024623F00040104347D0270DC7F30A0080
:10038000C3F30A510290401A019040286BDAC3F37C
:10039000130040F4801B0098924620B10023D2EB5A
:1003A000030A63EB0B0B01985946C0F1400250461B
:1003B00000F01BFA06460D4650465946019A00F0D9
:1003C00023FA10EB08006141002487EA115284EA05
:1003D000E7731A4340D0009A62B3019A012A4FEAA8
:1003E000075215DC001B61EB02014FF0004202EAEC
:1003F0000752CDE90042001C41F5801132462B46E0
:1004000000F05AFA03B0BDE8F08F40462146F9E704
:10041000001B61EB0201001C41F5801300185B41D9
:100420002018A2F5001747EB030140EAD570B61972
:100430006D4111E06D084FEA360645EAC0754FEA96
:100440000752001B61EB0201001C41F580114908B5
:100450004FEA30000019514132462B4603B0BDE847
:10046000F04F00F01ABA0098012240000023D0EBB0
:10047000020263EBE073009821464FEAE074B8EBA8
:10048000000061EB0401E9E783F000435BE781F0E2
:10049000004158E72DE9FE4F81EA030404F00044CF
:1004A00021F0004100944FF0000B23F0004350EA8C
:1004B00001045ED052EA03045BD0C3F30A54C1F3D3
:1004C0000A552C44A4F2F3340194A0FB0254C1F366
:1004D000130141F48011C3F3130343F4801301FBB0
:1004E000024400FB034E840A970A44EA815447EA17
:1004F0008357A4FB076802958D0A05FB07854FEA21
:10050000932C04FB0C542705029D4FEA065847EA3A
:100510001637B5EB08056EEB070C870E920E47EA0F
:10052000811742EA8312A7FB0201B6EB0B0164EBD1
:1005300000042B0D43EA0C335E1844EB1C50DA46E2
:100540005146E7FB0201C5F313044FEA0B3343EABC
:1005500014534FEA0432019C43EA0603A4F10C044D
:100560000294009CCDE900B400F0A6F903B0BDE808
:10057000F08F00200146F9E72DE9F04D81EA0304F0
:1005800004F0004B21F0004514464FF0000A23F020
:10059000004150EA050220D054EA01021DD0C5F303
:1005A0000A570246C5F31303C1F31300C1F30A56F9
:1005B00040F4801543F48013A7EB0608101BD646C1
:1005C00008F2FD3873EB050002D308F1010801E0E1
:1005D00092185B41B8F1000F03DA00200146BDE834
:1005E000F08D00204FF48011064684460EE0171B64
:1005F00073EB050705D3121B63EB050306434CEAB7
:10060000010C49084FEA300092185B4150EA01079B
:10061000EDD152EA030012D082EA040083EA050118
:10062000084305D0101BAB4106D20122002306E08F
:1006300000224FF0004302E06FF0010253101AEB6A
:1006400006004CEB085110EB0A0041EB0B01BDE832
:10065000F04D00F022B9C10F80EAE0700844CA07EB
:100660009623002100F0EBB896230022114600F0FB
:10067000E6B80EB5C10F80EAE0700844CA07002151
:1006800040F233438DE80E000A460B4600F014F9A1
:1006900003B000BD0EB540F2334102910021CDE917
:1006A00000110A460B4600F007F903B000BD20F028
:1006B0000040C10DC0F3160040F400007F2901DAAC
:1006C00000207047962903DCC1F19601C8407047AD
:1006D00096398840704700F0004230F000400AD060
:1006E000C10D01F56071C0F3160042EA0151C20864
:1006F00040071143704700200146704701F0004356
:1007000030B421F0004150EA010206D00A0DA2F5F2
:100710006072C1F31301002A02DC30BC0020704774
:10072000440F44EAC104C100E01830BC00EBC250E1
:1007300000F07CB8002801DBC0F10040002901DB9B
:10074000C1F1004181427047002801DBC0F1004047
:10075000002901DBC1F100418842704730B50B46EA
:10076000014600202022012409E021FA02F59D42E1
:1007700005D303FA02F5491B04FA02F52844151EB5
:10078000A2F10102F1DC30BD2DE9F05F0546002049
:1007900092469B4688460646814640241BE02846F2
:1007A00041464746224600F017F953465A46C01ABA
:1007B000914110D311461846224600F016F82D1A22
:1007C00067EB01084F4622460120002100F00DF89A
:1007D00017EB00094E41201EA4F10104DFDC48465E
:1007E00031462A464346BDE8F09F202A04DB203AE2
:1007F00000FA02F1002070479140C2F1200320FA74
:1008000003F3194390407047202A06DBCB17203AA8
:1008100041FA02F043EAE07306E041FA02F3D04005
:10082000C2F1200291400843194670470029A8BF31
:100830007047401C490008BF20F00100704710B409
:10084000B0FA80FC00FA0CF050EA010404BF10BCBE
:10085000704749B1CCF1200421FA04F411FA0CF1EB
:1008600018BF012121430843A3EB0C01CB1D4FEA24
:1008700000614FEA102042BF002010BC704700EB1F
:10088000C35010440029A4BF10BC7047401C49004D
:1008900008BF20F0010010BC704710B5141E73F1A2
:1008A000000408DA401C41F1000192185B411A4330
:1008B00001D120F0010010BD2DE9F04D92469B467C
:1008C00011B1B1FA81F202E0B0FA80F22032904622
:1008D000FFF78BFF04460F4640EA0A0041EA0B018E
:1008E00053465A46084313D0114653EA010019D023
:1008F000C8F14002504600F06FF805460E465046DB
:1009000059464246FFF771FF084305D0012004E035
:1009100020463946BDE8F08D0020054346EAE076E2
:100920002C4337430A986305E40AA0EB0800002231
:10093000FD0A44EA47540A3002D500200146E9E79F
:10094000010510196941DDE9084500196941BDE853
:10095000F04DA2E7C1F30A52C1F3130140F2FF3395
:1009600041F480119A4202DA00200146704740F2B9
:1009700033439A42A2F2334202DC524200F02CB8D6
:10098000FFF733BF30B5041E71F1000404DB4FF0F4
:100990000044404264EB0101141E73F1000405DBC6
:1009A0001C464FF00043524263EB0403994208BFD8
:1009B000904230BD064C074D06E0E06840F0010370
:1009C00094E8070098471034AC42F6D3FFF792FB47
:1009D000FC6400081C650008202A04DB203A21FA88
:1009E00002F00021704721FA02F3D040C2F1200248
:1009F000914008431946704708B54FF480716F481D
:100A0000FFF7A9FB6EA370A273A16C4802F02CF84B
:100A10006A4801F0D1FF4FF4967002F0C9FC74A14E
:100A20007748FFF7AFFB77490860002076490860F8
:100A300015E075480068401C734908606CA1704857
:100A4000FFF7A0FB6F490860642002F0B1FC6E481C
:100A50000068642803DD00206B49086003E06948F2
:100A600000680028E5D000BF00F05CFC4FF4807106
:100A70005248FFF770FB65A068A36AA26BA10090C3
:100A80004E4801F0F1FF4D4801F096FF4FF47A70A7
:100A900002F08EFC6DA15A48FFF774FB59490860BB
:100AA00000205949086015E057480068401C564925
:100AB000086066A15248FFF765FB52490860642050
:100AC00002F076FC50480068642803DD00204E499F
:100AD000086003E04B4800680028E5D000BF00F044
:100AE00021FC5EA001F068FF4FF4967002F060FCFC
:100AF0005DA14348FFF746FB424908600020424998
:100B0000086015E040480068401C3F49086056A155
:100B10003B48FFF737FB3B490860642002F048FC84
:100B200039480068642803DD00203749086003E085
:100B3000344800680028E5D000BF00F0F3FB4FF414
:100B400080711E48FFF707FB00F0ECFB47A24CA1A9
:100B50001A4801F089FF19494FA001F075FF1748A5
:100B600001F02AFF4FF4967002F022FC4EA12448B7
:100B7000FFF708FB2349086000202349086015E0BF
:100B800021480068401C2049086047A11C48FFF725
:100B9000F9FA1C4908600A2002F00AFC1A480068A9
:100BA000642803DD00201849086003E01548006848
:100BB0000028E5D000BF00F0B5FB08BD1F0B0020EA
:100BC00031383833000000003130312E3133322ECD
:100BD0003136342E3133330041542B514D544F5064
:100BE000454E3D302C222573222C25730D0A000022
:100BF0002B514D544F50454E3A20302C30000000C0
:100C0000940100202C00002038000020736D6172D8
:100C1000745F6C75676761676500000061646D698A
:100C20006E000000626332305F31000041542B518E
:100C30004D54434F4E4E3D302C222573222C2225FD
:100C400073222C222573220D0A0000002B514D54D3
:100C5000434F4E4E3A20302C302C300041542B4321
:100C6000434C4B3D3F0D0A004F4B00007379732FEF
:100C7000626332302F737562746F706963000000B5
:100C800041542B514D545355423D302C312C22258B
:100C900073222C300D0A00006174737472203D20A1
:100CA0002573200D0A0000002B514D545355423A34
:100CB00020302C312C302C300000000008B50121F0
:100CC000042001F041FA4FF48050ADF800001020EC
:100CD0008DF8030003208DF802006946084800F0F3
:100CE0008BFB4FF48051064800F065FC4FF47A709E
:100CF00002F05EFB4FF48051014800F05AFC08BD41
:100D00000008014010B5002422A001F055FE4FF468
:100D10007A7000F01DFB4FF47A7000F019FB4FF46D
:100D20007A7000F015FB00F0FDFA1EA001F044FE01
:100D30004FF4967000F00CFB1EA12148FFF722FA39
:100D40002049086000F0EEFA13E0641C00F0EAFAB3
:100D500014A001F031FE4FF4FA7000F0F9FA15A179
:100D60001748FFF70FFA17490860642C01DD0024CB
:100D700003E0144800680028E7D000BF00F0D2FA72
:100D800011A001F019FE4FF4967000F0E1FA00F0A6
:100D9000C9FA10BD41542B51474E5353433D310DB9
:100DA0000A00000041542B51474E5353433F0D0A54
:100DB000000000002B51474E5353433A20310000AE
:100DC000940100202C00002041542B51474E5353D6
:100DD00052443D224E4D45412F524D43220D0A00B3
:100DE00010B5002400206849086068A001F02CFEBE
:100DF0006BA001F0E1FD4FF4967000F0A9FA6A488B
:100E000001F022FE69A001F01FFE6CA16648FFF709
:100E1000B9F96B49086000F085FA11E069A001F0AA
:100E200013FE00F07FFA5EA001F0C6FD4FF496704D
:100E300000F08EFA61A15C48FFF7A4F960490860F0
:100E40005F4800680028E9D065A001F0B5FD4FF4C7
:100E5000967000F07DFA65A15348FFF793F9584961
:100E600008600846006858B94F49083161A001F090
:100E7000EBFD00F057FA4FF4967000F069FA0CE0C1
:100E800001204149086048495FA001F0DDFD00F004
:100E900049FA4FF4967000F05BFA5FA001F08CFD08
:100EA0004FF4967000F054FA00F03CFA5CA001F0A8
:100EB00083FD4FF4967000F04BFA5CA13A48FFF7BF
:100EC00061F93F49086000F02DFA002416E0641C27
:100ED00000F028FA52A001F06FFD4FF4967000F078
:100EE00037FA52A13048FFF74DF935490860642CB4
:100EF00004DD012024490860002403E03048006834
:100F00000028E4D000BF4CA001F056FD4FF49670CD
:100F100000F01EFA29A12448FFF734F92849086097
:100F20000846006848B1204946A001F08DFD00F058
:100F3000F9F94FF4967000F00BFA4AA001F03CFD6D
:100F40004FF4967000F004FA49A11748FFF71AF918
:100F50001B4908600846006848B1134946A001F0E3
:100F600073FD00F0DFF94FF4967000F0F1F946A040
:100F700001F022FD4FF4967000F0EAF900F0D2F98A
:100F80000148006810BD00003400002073746172D5
:100F90007420696E697420424332300D0A000000EB
:100FA00041540D0A00000000940100206765742080
:100FB0006261636B20424332300D0A004F4B0000E8
:100FC0002C0000200D0AB5A5C6ACBBFAD5FDD4DABD
:100FD000C1ACBDD3B5BDC4A3BFE92E2E2E0D0A00F2
:100FE00041542B43494D490D0A0000004552524FD0
:100FF00052000000CED2B5C4BFA8BAC5CAC7203AB5
:10100000202573200D0A0000BFA8B4EDCEF3203ACE
:10101000202573200D0A00004154490D0A000000EC
:1010200041542B43474154543F0D0A002B43474141
:1010300054543A203100000041542B5142414E4457
:101040003F0D0A003D3D3D3D3D3D3D3D42414E444D
:101050003D3D3D3D3D3D3D3D3D200D0A202573205C
:101060000D0A000041542B4353510D0A00000000AB
:101070002B43535100000000D0C5BAC5D6CAC1BF2A
:101080003A25730D0A00000041542B514343494453
:101090000D0A000010B5002422A001F08DFC4FF4D1
:1010A000967000F055F900F03DF922A001F084FCA3
:1010B0004FF4967000F04CF900F034F920A001F0E4
:1010C0007BFC4FF4967000F043F920A12248FFF713
:1010D00059F82249086000F025F913E0641C00F07B
:1010E00021F917A001F068FC4FF4967000F030F978
:1010F00016A11948FFF746F818490860642C01DD6D
:10110000002403E0154800680028E7D000BF4FF432
:10111000967000F01DF900F005F94FF4967000F09C
:1011200017F910BD41542B434750414444523D31BF
:101130000D0A000041542B4347534E3D310D0A0028
:1011400041542B43474154543F0D0A002B43474120
:1011500054543A2031000000940100202C0000205B
:1011600000BFFEE7F8B504460D46164600274FF4CB
:1011700080714C48FEF7EFFF4FF480714A48FEF74C
:10118000EAFF4FF480714948FEF7E5FF00F0CAF826
:1011900047A001F011FC4FF4967002F009F947A145
:1011A0004848FEF7EFFF484908600846006830B13C
:1011B000132208460168C91D3C48FEF7B3FF00F042
:1011C000B1F842A246A1384801F04EFC36494BA086
:1011D00001F03AFC344801F0EFFB4FF4967002F056
:1011E000E7F84AA13748FEF7CDFF374908600020ED
:1011F0004749086015E046480068401C44490860BB
:1012000042A13048FEF7BEFF2F4908601E2002F0C1
:10121000CFF83F480068642803DD00203C4908609F
:1012200003E0294800680028E5D000BF2B461F4A8C
:1012300021461C48009600F091FC074639461948A3
:1012400001F038FA1A2001F0E1F94FF4967002F03B
:10125000AFF830A11B48FEF795FF1B49086000203E
:101260002B49086015E02A480068401C284908609E
:1012700028A11448FEF786FF134908600A2002F0EF
:1012800097F823480068642803DD0020204908609F
:1012900003E00D4800680028E5D000BF00F042F8E8
:1012A000F8BD000034100020A40600201F0C002010
:1012B00041542B43434C4B3F0D0A00002B43434CFE
:1012C0004B3A2000940100202C0000207379732FEA
:1012D000626332302F707562746F70696300000052
:1012E00041542B514D545055423D302C302C302C14
:1012F000302C222573220D0A0000000061747374E3
:1013000072203D202573200D0A0000003E000000E1
:10131000380000202B514D545055423A20302C308B
:101320002C30000010B5084801F08EFB4FF4967089
:1013300000F00EF800200449C1F804014FF4807158
:101340000148FEF708FF10BD94010020704700001F
:10135000014600200D4A12884A434FF0E0235A61AB
:1013600000229A6101221A6100BF4FF0E022106949
:1013700000F001021AB100F48032002AF5D00022F8
:101380004FF0E0231A619A617047000016000020B8
:1013900008B501210D2000F0D7FE0121134800F00F
:1013A000B7F84FF44070ADF8000010208DF803003E
:1013B00003208DF8020069460D4800F01DF84FF437
:1013C00040710B4800F0F5F80220ADF80000102045
:1013D0008DF8030003208DF802006946054800F0EF
:1013E0000BF80221034800F0E6F808BD00023000C7
:1013F000000C0140000801402DE9F04102460025A3
:101400000026002000230024002791F803C00CF0E0
:101410000F0591F803C00CF0100CBCF1000F03D0C5
:1014200091F802C04CEA050591F800C0BCF1000F2C
:1014300031D0146800202BE04FF0010C0CFA00F3BF
:10144000B1F800C00CEA03069E4220D183004FF0A1
:101450000F0C0CFA03F7BC4305FA03FC4CEA040436
:1014600091F803C0BCF1280F06D14FF0010C0CFA23
:1014700000FCC2F814C00AE091F803C0BCF1480FA8
:1014800005D14FF0010C0CFA00FCC2F810C0401C52
:101490000828D1D31460B1F800C0BCF1FF0F34DDCF
:1014A000546800202EE000F1080C4FF0010808FA03
:1014B0000CF3B1F800C00CEA03069E4221D1830070
:1014C0004FF00F0C0CFA03F7BC4305FA03FC4CEA8F
:1014D000040491F803C0BCF1280F05D100F1080CF9
:1014E00008FA0CF8C2F8148091F803C0BCF1480F58
:1014F00007D100F1080C4FF0010808FA0CF8C2F807
:101500001080401C0828CED35460BDE8F081000054
:10151000F0B50A46002300240021002500F0004613
:10152000B6F1004F02D11D4EF16901E01B4E71680A
:10153000C0F3034583B200F44016B6F5401F08D14E
:1015400021F07061154E766826F07066134F7E604C
:1015500012E000F48016B6F5801F06D1032606FAC5
:1015600005F4A14341F0706106E0460D360103FA2F
:1015700006F6B14341F0706122B1460D360103FA1F
:1015800006F6314300F00046B6F1004F02D1034E9B
:10159000F16101E0014E7160F0BD0000000001400A
:1015A0000246002093680B400BB1012000E00020B0
:1015B00070474161704701617047000010B50446F3
:1015C000FFF7B0FE80212548FEF7C5FD24A001F0FD
:1015D000F3F94FF4967001F0EBFE27A12848FEF7CF
:1015E000D1FD284908600EE0FFF79CFE1CA001F029
:1015F000E3F94FF4967001F0DBFE1FA12048FEF7DF
:10160000C1FD204908601F4800680028ECD01D4833
:101610001DA10268114801F027FAFFF783FE502050
:101620000E49887019A001F00FFA0C48407C41283F
:1016300011D140211F48FEF78EFD40211E48FEF7C4
:101640008AFD00F03BF8012C01D11A4810BD022C94
:1016500001D11948FAE70020F8E700001F0D00202B
:1016600041542B51474E535352443D224E4D454118
:101670002F524D43220D0A0024474E524D43000085
:10168000940100202C000020257300003D3D3D3DCD
:101690003D3D3D3D3D3D3D3D4745544750524D4309
:1016A0003D3D3D3D3D3D3D3D3D3D3D3D3D3D0D0ACD
:1016B00025730000B40E0020F40E002010B50024A5
:1016C00023A12448FEF75EFD234908600846006810
:1016D00000282ED000BF06E01F480168A01C095C4E
:1016E0001E480155641C092CF6DB1DA11948FEF7A4
:1016F00049FD194908600846006858B1002407E010
:1017000015480168A01C095C14480B380155641C7D
:101710000A2CF5DB114913A001F096F90F490B399A
:1017200016A001F091F901200C49113981F8490006
:1017300004E000200949113981F8490007491139AD
:1017400091F8490000F028F8FFF7ECFD002010BDEB
:10175000412C00001F0D00202C000020710E0020E5
:101760004E2C00006C6174646174612E4C6174696C
:1017700074756465202C2573200D0A006C617464F7
:101780006174612E6C6F6E676974756465202C25B9
:1017900073200D0A000000002DE9F04F8DB0814646
:1017A000B9F1000F7ED0002405E0AF48015D15308F
:1017B0000155601CC4B2032CF7DB032407E0AA48E0
:1017C000025DE01EA8491C310A54601CC4B20A2CF8
:1017D000F5DBA549891F91F82810A1F13000FEF72B
:1017E0003AFF8246A149FEF770FD9F49891F069086
:1017F00091F82710A1F13000FEF72DFF9C490490CD
:10180000FEF763FD82469849891F91F82610A1F1E1
:101810003000FEF720FF97490290FEF756FD9249EF
:10182000891F049091F82510A1F13000FEF713FFF5
:1018300091490090FEF749FD8B49891F029091F86C
:1018400023103039884A921F92F82220303A02EB56
:10185000820201EB4200FEF7FEFE01900299FEF7C4
:10186000AAFC03900499FEF7A6FC83465146FEF7B6
:10187000A2FC05900699FEF79EFC0790FEF72BFF51
:1018800000227E4BCDE90801FEF776FE074688462A
:101890007549891FC97E303964225143724A921FAB
:1018A000127F00E0D4E0303A02EB820201EB420208
:1018B0006D49891F497F30395018FEF7DAFE3A46E4
:1018C0004346CDE90A01FEF73EFD0546FEF716FF49
:1018D0006549891FC864002406E063480B30015D38
:1018E0000E300155601CC4B2022CF6DB022408E065
:1018F0005D480B30025DA01E5B4924310A54601C18
:10190000C4B2092CF4DB5849891F91F83010A1F1B9
:101910003000FEF7A0FE80465449FEF7D6FC52493F
:10192000891F049091F82F10A1F13000FEF793FE6B
:1019300083464F49FEF7C9FC80464B49891F91F801
:101940002E10A1F13000FEF786FE4A490290FEF704
:10195000BCFC4549891F039091F82D10A1F130007E
:10196000FEF779FE44490090FEF7AFFC3E49891F1F
:10197000029091F82B1030393B4A921F92F82A209E
:10198000303A02EB820201EB4200FEF764FE019066
:101990000299FEF710FC83460399FEF70CFC824681
:1019A0004146FEF708FC05460499FEF704FC059045
:1019B000FEF791FE0022314BCDE90601FEF7DCFD7A
:1019C000CDE90A012849891F91F82010A1F13000C2
:1019D000FEF741FE82462449891FC97FA1F13000EC
:1019E000FEF739FE83462449FEF73DFC804651460A
:1019F000FEF7E1FB0546FEF76EFECDE90801DDE9E5
:101A00000A23FEF7A0FC0646FEF778FE1649891F5A
:101A10000865086DFEF75FFE05462A460B4618A1CD
:101A2000184801F021F81049891FC86CFEF753FED1
:101A300005462A460B4612A1134801F015F8114934
:101A400012A001F001F8104914A000F0FDFF07E01A
:101A500000200549891FC86400210348801F0165D3
:101A60000DB0BDE8F08F0000660E002000401C465F
:101A700000007A440000C8420000204100004E40AF
:101A800025660000B40E0020F40E00206C61745333
:101A9000747241462C2573200D0A00006C6F6E5342
:101AA000747241462C2573200D0A000000BFFEE72A
:101AB00010B54FF400610C48FFF77DFD4FF48061D5
:101AC0000948FFF778FD00F041F84FF4006106483F
:101AD000FFF76FFD00F03AF84FF480610248FFF71E
:101AE00068FD00F033F810BD000C014010B54FF454
:101AF00000610848FFF75DFD4FF480610548FFF77E
:101B00005AFD00F023F84FF400610248FFF753FD3F
:101B100010BD0000000C014010B54FF400610A48F0
:101B2000FFF749FD00F012F84FF480610648FFF717
:101B300042FD00F00BF84FF480610348FFF739FDD8
:101B400000F004F810BD0000000C0140032000BFAD
:101B5000011EA0F10102D0B2FAD170472DE9F04385
:101B6000BDB080460C4615461E46DDF81091902209
:101B7000264919A8FEF7D6FA4FF480712448FEF7DB
:101B8000EAFACDE91696D4E91401CDE91401D4E9B5
:101B90001201CDE91201D4E91001CDE91001D4E917
:101BA0000E01CDE90E01D4E90C01CDE90C01D4E917
:101BB0000A01CDE90A01D4E90801CDE90801D4E917
:101BC0000601CDE90601D4E90401CDE90401D4E917
:101BD0000201CDE90201D4E900012B460DA2CDE9B5
:101BE000000119A90A4800F03FFF09490BA000F0C5
:101BF0002BFF0748FEF7D8FA87B23A460449404619
:101C0000FEF790FAF8B23DB0BDE8F0836C640008CE
:101C1000340F0020626332305F3100004A534F4E70
:101C2000454E44203D202573200D0A0000BFFEE7ED
:101C300010B502210748FFF7BEFC4FF4FA7001F01F
:101C4000B7FB02210348FFF7B4FC4FF4967001F094
:101C5000AFFB10BD000801407047000070B50021C7
:101C600000230F22C47804B3154C246804F4E06404
:101C7000C4F5E064210AC1F10403CA40447804FABF
:101C800003F184781440214309010E4C0678A155D4
:101C9000047804F01F050124AC4005786D11AD00F7
:101CA00005F1E025C5F8004109E0047804F01F05BE
:101CB0000124AC40044D0678761145F8264070BDED
:101CC0000CED00E000E400E080E100E002490143A7
:101CD000024A1160704700000000FA050CED00E0B8
:101CE00070B500240CE0002506E00020074901EB58
:101CF000C5010855681CC5B2802DF6DB601CC4B256
:101D0000082CF0DB00F0ECF870BD0000F0110020B2
:101D100010B504461CB90021A62000F0D8F9012C0A
:101D200003D10021A72000F0D2F910BD10B5044660
:101D30003CB90021C82000F0CAF90021A12000F020
:101D4000C6F9012C07D10021C02000F0C0F9002104
:101D5000A02000F0BCF910BDF0B514460B46CF171B
:101D600001EB5777C7F3C702CF1701EB5777FF1087
:101D7000A1EBC707FEB20123B340DDB24CB1134B58
:101D800003EBC0039B5C2B43104F07EBC007BB5416
:101D90001AE00E4B03EBC0039B5CDB430B4F07EBDE
:101DA000C007BB54094B03EBC0039B5C2B43074F9D
:101DB00007EBC007BB54054B03EBC0039B5CDB4345
:101DC000024F07EBC007BB54F0BD0000F01100202C
:101DD00008B50121082000F0B7F94FF44060ADF8D4
:101DE000000014208DF8030003208DF802006946DE
:101DF0003A48FFF701FB4FF440613848FFF7DBFB3F
:101E0000C82001F0D5FA0021AE2000F060F90021D1
:101E1000084600F05CF90021102000F058F900217C
:101E2000402000F054F90021812000F050F90021F9
:101E3000CF2000F04CF90021A12000F048F900214A
:101E4000C82000F044F90021A62000F040F900214C
:101E5000A82000F03CF900213F2000F038F90021D3
:101E6000D32000F034F90021084600F030F90021B9
:101E7000D52000F02CF90021802000F028F9002165
:101E8000D92000F024F90021F12000F020F90021F0
:101E9000DA2000F01CF90021122000F018F90021CE
:101EA000DB2000F014F90021302000F010F90021AF
:101EB000202000F00CF90021022000F008F9002198
:101EC0008D2000F004F90021142000F000F9FFF744
:101ED00007FF0021AF2000F0FAF808BD000C014018
:101EE00070B500242BE004F1B001C8B2002100F06D
:101EF000EEF80021084600F0EAF80021102000F07A
:101F0000E6F8FFF7D5FD782000F0D0F9FFF704FEE2
:101F1000402000F0CBF9FFF7FFFD002509E009495B
:101F200001EBC501085D00F0C1F9FFF7F5FD681C84
:101F3000C5B2802DF3DBFFF7D9FD601CC4B2082CBD
:101F4000D1DB70BDF01100202DE9FE4F0746884619
:101F500092461C460197CDF80080082C02D14FF024
:101F600006091FE02046E31704EB5373DB102146FC
:101F70004FEAE47C04EB5C7C4FEAEC0CA4EBCC0C69
:101F8000BCF1000F02D04FF0010C01E04FF0000C4B
:101F90006344224604EBD27C4FEA6C0C03FB0CF347
:101FA00003F0FF09AAF12000C6B200255EE0082C6C
:101FB00007D106EB46002F4901EB400010F805B0B1
:101FC0001DE00C2C07D106EB46002B4901EB8000ED
:101FD00010F805B013E0102C05D1284800EB0610CE
:101FE00010F805B00BE0182C07D106EBC600244909
:101FF00001EB800010F805B001E0BDE8FE8F002085
:1020000002901CE00BF0010028B1414638460C9AC2
:10201000FFF7A2FE09E00C9808B9012000E00020BB
:10202000024641463846FFF797FE4FEA6B0B08F130
:10203000010000F0FF080298401CC0B20290029814
:102040000828DFDB781CC7B2082C0BD004EBD47156
:102050004A100199791A8A4204D1019F00980830E8
:10206000C0B20090DDF80080681CC5B24D459EDB13
:1020700000BFC2E75C46000884480008F84C00082E
:10208000E85200082DE9F84106460F4614461D4661
:10209000DDF81C8013E0CDF8008022782B4639460D
:1020A0003046FFF751FF082D02D1B01DC6B205E042
:1020B000284605EBD07106EB6101CEB2641C207896
:1020C000202802DB20787E28E5DDBDE8F88170B5A8
:1020D00005460C46FFF7ECFC782000F0E7F8FFF728
:1020E0001BFD1CB1402000F0E1F802E0002000F0F0
:1020F000DDF8FFF711FD284600F0D8F8FFF70CFDDA
:10210000FFF7F4FC70BD704729B1064AD26902435B
:10211000044BDA6104E0034AD2698243014BDA617D
:10212000704700000010024029B1064A12690243BC
:10213000044B1A6104E0034A12698243014B1A619D
:10214000704700000010024029B1064A926902431C
:10215000044B9A6104E0034A92698243014B9A61FD
:10216000704700000010024029B1064AD2680243BD
:10217000044BDA6004E0034AD2688243014BDA6020
:10218000704700000010024030B5002100220024FA
:1021900000232D4D6D6805F00C0121B1042905D0F7
:1021A000082923D105E0294D056022E0274D05606F
:1021B0001FE0254D6D6805F47012234D6D6805F420
:1021C0008034022505EB92421CB9214D5543056030
:1021D0000BE01D4D6D6805F400351DB11C4D5543D8
:1021E000056002E0194D5543056002E0174D05609A
:1021F00000BF00BF144D6D6805F0F0010909154DD1
:102200006B5C0568DD4045600F4D6D6805F4E0616D
:10221000090A104D6B5C4568DD4085600A4D6D68AC
:1022200005F46051C90A0B4D6B5C4568DD40C56023
:10223000054D6D6805F44041890B074D6B5CC56821
:10224000B5FBF3F5056130BD0010024000127A00C5
:1022500000093D00180000202800002070B500246F
:1022600000251BE06006040E40210E48FFF7A3F98D
:10227000012001F0C3F840210A48FFF79AF9012034
:1022800001F0BCF880210748FFF78AF908B144F053
:102290000104012001F0B2F8681CC5B2082DE1DB91
:1022A000204670BD000801407047000070B504462C
:1022B00000251FE004F0800028B14FF400610F48B2
:1022C000FFF779F904E04FF400610C48FFF771F96A
:1022D000FFF73CFC4FF480610848FFF76CF9FFF70B
:1022E00035FC4FF480610548FFF763F96006040E82
:1022F000681CC5B2082DDDDB70BD0000000C01407C
:1023000010B500F001F810BD0CB500200190009050
:102310003348006840F480303149086000BF3048DD
:10232000006800F4003000900198401C0190009873
:1023300018B90198B0F5A06FF1D12948006800F4F0
:10234000003010B10120009001E0002000900098C2
:10235000012843D12348006840F01000214908605B
:102360000846006820F0030008600846006840F056
:10237000020008601A4840681949486008464068E9
:1023800048600846406840F48060486008464068FD
:1023900020F47C1048600846406840F4E81048602B
:1023A0000846006840F08070086000BF0C48006874
:1023B00000F000700028F9D00948406820F00300C0
:1023C000074948600846406840F00200486000BF86
:1023D0000348406800F00C000828F9D10CBD00004B
:1023E0000010024000200240042808D14FF0E021F4
:1023F000096941F004014FF0E022116107E04FF05C
:10240000E021096921F004014FF0E02211617047D9
:102410007047000010B51348006840F001001149F2
:10242000086008464068104908400E494860084660
:1024300000680E4908400B4908600846006820F40F
:10244000802008600846406820F4FE0048604FF491
:102450001F008860FFF754FF4FF0006004490860D8
:1024600010BD0000001002400000FFF8FFFFF6FE64
:1024700008ED00E010B501210B4800F05AF888B1D2
:102480000121094800F046F808480078401C074937
:102490000870084600780A2804DB00200870012034
:1024A0000349087010BD00000004004044000020F3
:1024B000450000207FB505460C4601210220FFF7AC
:1024C00023FEADF80850ADF804400020ADF80A0036
:1024D000ADF8060001A90E4800F046F801221146A9
:1024E0000B4800F037F81D208DF8000000208DF813
:1024F000010003208DF8020001208DF803006846DA
:10250000FFF7ACFB0121024800F007F87FBD000097
:1025100000040040CA430282704721B1028842F0A1
:102520000102028004E002884FF6FE731A40028026
:10253000704730B50246002000230024158A05EAC2
:102540000103958905EA010413B10CB1012000E0F3
:10255000002030BD1AB183890B43838102E0838957
:102560008B43838170470000002202881D4B9842F4
:102570000ED01D4B98420BD0B0F1804F08D01B4BB2
:10258000984205D01A4B984202D01A4B984204D177
:102590004FF68F731A404B881A43174B984207D057
:1025A000164B984204D04FF6FF431A40CB881A438B
:1025B00002808B8883850B8803850A4B98420BD059
:1025C000094B984208D00E4B984205D00D4B9842CB
:1025D00002D00D4B984201D10B7A038601238382EE
:1025E00070470000002C014000340140000400400E
:1025F00000080040000C00400010004000140040A3
:1026000000400140004401400048014010B504462C
:1026100000BF8021044800F0E9F80028F9D02146E5
:10262000014800F0B0F910BD0044004010B540F280
:1026300025510A4800F0E7F870B1084800F09EF90B
:10264000C1B20748D0F80421D0F80401401C044B63
:10265000C3F804011846815410BD00000038014041
:102660008C00002010B540F22551114800F0CBF845
:1026700001280BD10E4800F081F9C4B2204600F0C9
:10268000E5FF40F225510A4800F047F808210848C4
:1026900000F0ACF801280AD1054800F06FF9C4B287
:1026A000204600F0D3FF0821014800F02DF810BDAE
:1026B0000044004070B505460E46002404E0285D45
:1026C000FFF7A4FF601C84B2B442F8DB70BD0000C9
:1026D00010B540F225510A4800F095F870B108484D
:1026E00000F04CF9C1B20748D0F80421D0F8040139
:1026F000401C044BC3F804011846815410BD00006F
:10270000004800409C02002001F40072B2F5007FF6
:1027100000D100BFCA430280704710B500220023D9
:1027200040F66A14A14200D100BF0A12012494406D
:10273000A3B2DC43048010BD21B1828942F400526F
:10274000828104E082894DF6FF731A4082817047CE
:1027500010B504462048844209D101218803FFF7BF
:1027600003FD00214FF48040FFF7FEFC32E01B48E0
:10277000844209D101214804FFF7D6FC00214FF41F
:102780000030FFF7D1FC25E01548844209D1012132
:102790008804FFF7C9FC00214FF48020FFF7C4FC38
:1027A00018E01048844209D10121C804FFF7BCFC9D
:1027B00000214FF40020FFF7B7FC0BE00A488442E9
:1027C00008D101210805FFF7AFFC00214FF480106C
:1027D000FFF7AAFC10BD0000003801400044004093
:1027E00000480040004C00400050004002460020DD
:1027F000B1F5007F00D100BF13880B400BB1012061
:1028000000E00020704770B5024600240023002538
:10281000002040F66A16B14200D100BFC1F3421554
:1028200001F01F03012606FA03F3012D02D1968958
:10283000334006E0022D02D1168A334001E0968A29
:1028400033400C12012606FA04F41688344013B102
:102850000CB1012000E0002070BDF0B5034600245B
:1028600000260025002040F66A17B94200D100BFBB
:102870001846C1F3421401F01F06012707FA06F5B6
:10288000012C01D10C3004E0022C01D1103000E009
:1028900014301AB107682F43076002E00768AF439E
:1028A0000760F0BD2DE9F04786B005460E460024CE
:1028B000A24600BFA1460027B08900B100BF2F4645
:1028C0002C8A4CF6FF700440F08804432C82AC89BB
:1028D0004EF6F3100440B0883189084371890843EB
:1028E0000443AC81AC8A4FF6FF400440B0890443F6
:1028F000AC8201A8FFF748FC1F48874202D1DDF8EF
:1029000010A001E0DDF80CA0A88900F4004040B15F
:102910000AEBCA0000EB0A1031684900B0FBF1F87D
:1029200007E00AEBCA0000EB0A1031688900B0FB2F
:10293000F1F86420B8FBF0F004012009642101FBE8
:102940001089A88900F4004040B1322000EBC90092
:10295000B0FBF1F000F00700044308E0322000EB88
:1029600009106421B0FBF1F000F00F0004432C814A
:1029700006B0BDE8F08700000038014001468888B5
:10298000C0F308007047C1F308028280704700005E
:102990000BE000BF0749098801F040010029F9D088
:1029A0000178044A121D1180401C01780029F0D1E1
:1029B00070470000003801400BE000BF074909885C
:1029C00001F040010029F9D00178044A121D11805C
:1029D000401C01780029F0D17047000000440040FD
:1029E00000BFFEE770B506460024802500BF1FE04B
:1029F00040211448FEF7DFFD0A2000F0FFFC06EA44
:102A0000050020B110210F48FEF7D5FD03E010218D
:102A10000C48FEF7CEFD6D100A2000F0EFFC4021BF
:102A20000848FEF7C6FD0A2000F0E8FC601CC4B2AE
:102A3000082CDDDB10210348FEF7BBFD0A2000F067
:102A4000DDFC70BD000801400FB4054B10B503A9B3
:102A5000044A029800F0EEF810BC5DF814FB000088
:102A600049340008880000200FB4084B10B504A9B1
:102A700002AA039800F0DEF8044602A9002000F044
:102A800070FC204610BC5DF814FB000063330008A6
:102A900002E008C8121F08C1002AFAD17047704727
:102AA000002001E001C1121F002AFBD17047000085
:102AB0002DE9FF5F82B00021DDE90430020DDDF871
:102AC00040B0034318D044F61050A2F2FF32424304
:102AD0001514119801281FD0A5EB0B00401C5FEACC
:102AE000000A4FF000064E4FDFF83891B0465046CE
:102AF00015D5CAF1000413E0119801244AA3012856
:102B000001D16FEA0B010298119AC0E90031C0E9C6
:102B1000024206B0BDE8F09FCBF10000DFE70446BB
:102B20000021404A491842EB0450CDE9001012E060
:102B3000E00707D032463B4640464946FDF7AAFC2F
:102B40008046894632463B4610461946FDF7A2FCB0
:102B500006460F466410002CEAD1DDE90401DDE9E8
:102B60000023BAF1000F06DAFDF794FC42464B460B
:102B7000FDF790FC05E0FDF7FFFC42464B46FDF7F4
:102B8000FBFC04460E460022284BFDF7FBFE03D853
:102B90004FF0FF30014607E00022254B204631462A
:102BA000FDF7D1FBFDF7D6FE102409E0002C0ADB6F
:102BB0000A220023FDF7E8FD039B30321A55641EFC
:102BC00050EA0102F2D1641C039AC4F111031444C7
:102BD000119A012A03D0012208430DD10AE00843CB
:102BE00004D000204FF0110B119072E7A3EB0B05FE
:102BF0006D1E0DE05B4504DD4FF0000205F101059F
:102C000004E003DA4FF00002A5F10105002AECD040
:102C100002981199C0E90231C0E9004579E7000046
:102C2000000014400000F03F300000000000F043BE
:102C30000000E03F2DE9FF4F95B09B4689460646D0
:102C400000250FE2252877D100242746F84A0121E4
:102C5000059400E0044316F8013F203B01FA03F01D
:102C60001042F7D130782A2811D06FF02F03307836
:102C7000A0F13002092A16D8059A44F0020402EBAA
:102C8000820203EB42021044761C0590EFE759F8EC
:102C9000042B0592002A03DA504244F400540590B4
:102CA00044F00204761C30782E2816D116F8010F55
:102CB00044F004042A280DD06FF02F023078A0F1E0
:102CC0003003092B09D807EB870302EB4303C7182E
:102CD000761CF3E759F8047B761C30786C280FD00B
:102CE00006DC4C2817D068280DD06A2814D104E0DF
:102CF000742810D07A280FD10DE044F400140AE0B3
:102D000044F4801401E044F440147278824202D109
:102D100004F58014761C761C307866280BD013DC02
:102D2000582877D009DC002875D04528F6D04628E9
:102D3000F4D047281AD19DE118E0632835D06428E3
:102D400079D0652812D195E1702873D008DC672806
:102D5000F1D069286FD06E280DD06F2806D1B5E06C
:102D600073282CD0752875D0782874D05A461799B6
:102D700090476D1C75E1C4F30250022809D0032866
:102D80000DD0D9F8001004280DD00D6009F1040908
:102D900067E1D9F80010EA17C1E90052F6E7D9F85F
:102DA00000100D80F2E70D70F0E719F8041B8DF8A4
:102DB000001000208DF80100EA46012003E059F8D8
:102DC00004AB4FF0FF3061074FF0000102D40DE07B
:102DD00008F101018846B9420FDA8045F8DB1AF89C
:102DE00008100029F4D108E008F101018846814269
:102DF000FADB1AF808100029F6D105985B46A0EB1B
:102E0000080721463846179A00F094FA284400EB48
:102E1000080507E04DE029E10DE01AF8010B5A46DC
:102E200017999047B8F10108F7D25B46214638461A
:102E3000179A13E142E00A220092C4F302524FF0C3
:102E4000000A022A08D059F804CB032A4FEAEC7191
:102E50000AD00DE029E02AE009F1070121F007027C
:102E6000F2E802C1914609E00FFA8CFC4FEAEC71DE
:102E7000042A03D14FFA8CFC4FEAEC71002907DADF
:102E80000A460021DCF1000C61EB02012D2202E078
:102E9000220504D52B228DF80420012203E0E2074D
:102EA00001D02022F7E7904659E00A2102E01022E3
:102EB0000DE010214FF0000A00910BE010224FF0BE
:102EC000000A44F004040827009203E008224FF0AF
:102ED000000A0092C4F30252022A05D059F804CB2A
:102EE0000021032A08D009E009F1070121F00702B7
:102EF000F2E802C1914605E01FFA8CFC042A01D1D8
:102F00000CF0FF0C4FF00008220728D5702806D0DF
:102F1000009B83F0100353EA0A0305D00EE0402221
:102F20008DF80420012208E05CEA010206D030227C
:102F30008DF804208DF8050002229046009B83F056
:102F4000080353EA0A030AD15CEA010201D16207CD
:102F500005D530228DF804204FF001087F1E582837
:102F600004D034A003900EA802900DE036A0F9E73B
:102F700053466046009AFDF707FC84460398825C3E
:102F80000298401E029002705CEA0100F0D10298A3
:102F900006A9081A00F1200A600702D524F480343B
:102FA00000E00127574502DDA7EB0A0000E0002002
:102FB00000EB0A01009005984144401A0590E00397
:102FC00006D45B462146179A059800F0B3F90544EC
:102FD000002706E001A85A46C05D179990476D1C6E
:102FE0007F1C4745F6DBE0030CD55B462146179A6C
:102FF000059800F09FF9054404E030205A461799DF
:1030000090476D1C0099481E00900029F5DC08E0EF
:10301000029802995A460078491C029117999047E4
:103020006D1CBAF10001AAF1010AF1DC65E10000B2
:10303000092801003031323334353637383961628E
:103040006364656600000000303132333435363752
:1030500038394142434445460000000000F058F929
:103060000544761C307800287FF4ECAD19B0284672
:10307000BDE8F08F620700D4062709F1070222F0AD
:10308000070CFCE80223E14603F000485FEA080C65
:1030900002D00FF2702C0DE05FEA045C02D50FF253
:1030A000682C07E05FEAC47C02D00FF2602C01E0DC
:1030B000AFF2700C4FF0FF3823F00043CDF850C052
:1030C00065280CD006DC452809D046281DD04728A5
:1030D0003DD13DE0662818D067287ED138E0002138
:1030E000112F01DB112000E0781CCDE9000106A9B9
:1030F0000EA8FFF7DDFCDDE90F010E9A0391002118
:10310000009207F1010A04914DE04FF00040009752
:10311000CDE9011006A90EA8FFF7CAFCDDE90F02F0
:1031200003920E9B11990022DDF80CA000930492EB
:1031300011B9791C00EB010AB7EB0A0004D4C0F105
:10314000FF3007F1010A0490AAEB0700019044E068
:10315000012F00DA01270021112F01DD112000E0ED
:103160003846CDE9000106A90EA8FFF7A1FCDDE96C
:103170000F010E9A0391002104910092BA46210793
:103180000CD40399514500DA8A46BAF1010F05DDE6
:10319000009AAAF10101515C302908D0B84202DA44
:1031A00010F1040F06DA0121CDE9011015E0AAF1B2
:1031B0000101E9E7002805DC049901440491AAEB28
:1031C000000102E0411C514500DD8A460499401A85
:1031D000401C01904FF000400290200704D4019859
:1031E000504501DBCDF8048000208DF84F00029897
:1031F0000DF14F07B0F1004F25D02B200E90029813
:103200004FF0020800280CDA404202902D200E9068
:1032100007E00A210298FDF7A1FA3031029007F881
:10322000011DB8F10001A8F10108F2DC02980028A4
:10323000EFD1791E0E980870307800F0200040F031
:10324000450007F8020D12A8C01B00F107081498EA
:10325000007800B1012000EB0A01019801EBE07158
:1032600005984144401A401E0590E00306D45B4691
:103270002146179A059800F05DF8054414980078E7
:1032800018B15A46179990476D1CE00324D55B4648
:103290002146179A059800F04DF805441CE0049863
:1032A000002807DBDDE90301884203DD0098405C6C
:1032B000179901E0179930205A469047049805F174
:1032C0000105401C04900198401E019004D12E205D
:1032D0005A46179990476D1CBAF10001AAF1010AEC
:1032E000DDDC05E017F8010B5A46179990476D1C75
:1032F000B8F10001A8F10108F4DC5B462146179AF9
:103300000598ABE62D0000002B0000002000000017
:103310002DE9F041044600251E461746880404D4D2
:1033200005E039462020B0476D1C641EF9D52846BB
:10333000BDE8F0812DE9F041044600251E46904687
:10334000C80301D5302700E02027880404D505E014
:1033500041463846B0476D1C641EF9D52846BDE885
:10336000F0810A68531C0B601070704710B56FF045
:103370000400FFF739F80A4800680A49B0FBF1F089
:10338000094908700846007800EB4001C1EBC01005
:103390004FF6FF7101EAC0000449088010BD00002B
:1033A0000000002000127A00140000201600002007
:1033B0000146114A12884A434FF0E0235A61002225
:1033C0009A611A46126942F001021A6100BF4FF079
:1033D000E022106900F001021AB100F48032002AE4
:1033E000F5D04FF0E022126922F001024FF0E02305
:1033F0001A6100229A617047160000200146114AA6
:1034000012784A434FF0E0235A6100229A611A462B
:10341000126942F001021A6100BF4FF0E022106908
:1034200000F001021AB100F48032002AF5D04FF00A
:10343000E022126922F001024FF0E0231A6100221B
:103440009A6170471400002000BF054A128802F0FC
:103450004002002AF9D0C2B2014B1B1D1A807047EE
:1034600000380140ADF5627DFFF780FFFEF7B0FC4C
:103470000020FEF74DFC0020FEF758FCFDF71EFC77
:10348000FDF786FF4FF4A060FEF720FC4FF4E1301B
:1034900000F0E2FF4FF4E13001F034F84FF4E13096
:1034A00001F086F8FEF7C4FBFEF71AFC012010239A
:1034B00046A2002100900846FEF7E4FD01201023FB
:1034C00046A2194600900020FEF7DCFDFEF708FD3D
:1034D00046A0FFF75DFA00F069FF00F0CFF800BFEB
:1034E000FDF77EFC0028FBD1FDF7D4FDFDF784FA43
:1034F000FDF708FC41F61F4141F28730FEF7DAFF85
:1035000001203F49086060E03D48001D006808B99F
:10351000012000E000203A49091D086000F012FA7D
:103520004FF4807162A8FCF716FE4FF48071A2A8D8
:10353000FCF711FE00244FF4807122A8FCF70BFE6B
:10354000402112A8FCF707FE402102A8FCF703FE69
:103550002CA122A8FCF70AFE0120FEF72FF8044652
:1035600044B1214622A8FCF701FE214612A8FCF72F
:10357000FDFD07E026A122A8FCF7F8FD24A112A872
:10358000FCF7F4FD25A122A8FCF7F0FD0220FEF7D0
:1035900015F8044644B1214622A8FCF7E7FD214670
:1035A00002A8FCF7E3FD07E01FA122A8FCF7DEFD5F
:1035B0001DA102A8FCF7DAFD22A91EA0FFF744FA1C
:1035C00002AA12A92048FDF7CDFD9DE753544D33C3
:1035D000322B424332302B57494649004E42494F25
:1035E000542047505320424F41524400696E697441
:1035F0002073746D33324C20434F4D31200D0A003F
:10360000A08121426C617469747564653D0000009D
:1036100033392E383937343435000000266C6F6E5C
:103620006769747564653D003131362E333331334B
:103630003938000073656E644D7574694461746156
:103640003D2573200D0A0000981100200A49D1F889
:103650000411FF2904D90021074AC2F804110AE025
:103660000549D1F80421D1F80411491C024BC3F8D3
:1036700004111946885470479401002070B5002544
:1036800000247F4801684FF07E50FCF71EFE06467E
:10369000FDF70DF87B4908607B4801684FF07E50CC
:1036A000FCF713FE0646FDF702F8784908607848F3
:1036B00001684FF07E50FCF708FE0646FCF7F7FF66
:1036C00074490860032140F28F1000F02FFE044679
:1036D0007148844203D071A0FFF7B6F970BD74A0A1
:1036E000FFF7B2F90122E5214FF4C07000F07AFE35
:1036F0000122A22140F2811000F074FE0122FA2181
:103700004FF4C17000F06EFE4FF47A70FFF776FE52
:103710000122E5214FF4C07000F064FE0122A221D5
:1037200040F2811000F05EFE022266480188D0015E
:1037300000F058FE0221C80100F0F8FD06463146AF
:1037400061A0FFF781F902226348018840F213105B
:1037500000F048FE0222614801884FF48A7000F0B0
:1037600041FE02225E48018840F2151000F03AFE48
:1037700002225C4801884FF48B7000F033FE022275
:103780005948018840F2171000F02CFE02225748D9
:1037900001884FF48C7000F025FE02225448018805
:1037A0004FF4947000F01EFE02225248018840F24D
:1037B000291000F017FE02224F4801884FF495703F
:1037C00000F010FE02224D48018840F22B1000F05C
:1037D00009FE02224A4801884FF4967000F002FE6A
:1037E00002224848018840F22D1000F0FBFD4FF402
:1037F000A0040322214640F2611000F0F3FD0025F1
:103800000222294640F2831000F0ECFD022140F232
:10381000831000F08BFD0646324629463AA0FFF79A
:1038200013F902223F4801884FF4817000F0DAFD5D
:1038300002223D48018840F2031000F0D3FD01222E
:1038400000214FF4C37000F0CDFD032237494FF43F
:10385000B17000F0C7FD0122DC214FF4C07000F010
:10386000C1FD03214FF4B57000F060FD30490860E0
:10387000084601682FA0FFF7E7F800BF2EE7000019
:103880005400002048000020580000204C00002078
:103890005C0000205000002000028300726E38336C
:1038A000303220646576206964206572726F0A0088
:1038B000726E3833303220646576206964206F6B15
:1038C0000A000000640000204846434F4E53543124
:1038D0003D25640A0000000066000020680000200A
:1038E0006A0000206C0000206E00002070000020A4
:1038F0007200002074000020760000207800002074
:103900007A0000207C000020746D7031363D3078E4
:1039100025782C205245474346473D307825780A84
:10392000000000007E0000208000002077777700F4
:1039300084000020434845434B53554D313D30787A
:1039400025780A0000B5A7B00020269003214FF487
:10395000B57000F0EBFC2690FE4926980968884275
:1039600006D0FFF78BFEFCA0FFF76EF827B000BD76
:103970000A20FFF743FD0421072000F0D7FC259023
:103980000421082000F0D2FC24900421092000F03A
:10399000CDFC2390F4A0DDE923322599FFF754F8FC
:1039A0002598FCF761FE0D90F94801680D98FCF729
:1039B0005AFCF84908602498FCF756FE0D90F4482C
:1039C00001680D98FCF74FFCF24948602398FCF71A
:1039D0004BFE0D90EE4801680D98FCF744FCED4954
:1039E0008860084680680790FCF775FECDE90C01F9
:1039F000E84840680790FCF76EFECDE90A01E5480B
:103A000000680790FCF767FECDE90801DDE90C01CD
:103A1000CDE90201DDE90A01CDE90001DEA0DDE921
:103A20000823FFF711F804210B2000F07FFC2290FF
:103A300004210C2000F07AFC219004210D2000F0DC
:103A400075FC2090DCA0DDE920322299FEF7FCFF16
:103A50002298FCF709FE0D90E14801680D98FCF7EB
:103A600002FCCC49C8602198FCF7FEFD0D90DC48B3
:103A700001680D98FCF7F7FBC64908612098FCF730
:103A8000F3FD0D90D64801680D98FCF7ECFBC14999
:103A90004861084640690790FCF71DFECDE90C011E
:103AA000BC4800690790FCF716FECDE90A01B94849
:103AB000C0680790FCF70FFECDE90801DDE90C01B5
:103AC000CDE90201DDE90A01CDE90001C5A0DDE98A
:103AD0000823FEF7B9FF0421142000F027FC1F90F3
:103AE0000421152000F022FC1E900421162000F075
:103AF0001DFC1D900421172000F018FC1C901C9840
:103B00000090C0A0DDE91D321F99FEF79DFF1F98B0
:103B100000F0004018B11F98C0F1FF301F901E98B0
:103B200000F0004018B11E98C0F1FF301E901D98A3
:103B300000F0004018B11D98C0F1FF301D901C9896
:103B400000F0004018B11C98C0F1FF301C901F9885
:103B5000FCF78AFD0D90B94801680D98FCF783FBCE
:103B60008C4988611E98FCF77FFD0D90B348016871
:103B70000D98FCF778FB8749C8611D98FCF774FD28
:103B80000D90AE4801680D98FCF76DFB8149086205
:103B90001C98FCF769FD0D90A84801680D98FCF78A
:103BA00062FB7C4948620846406A0590FCF793FD39
:103BB000CDE90C017748006A0590FCF78CFDCDE952
:103BC0000A017448C0690590FCF785FDCDE908013C
:103BD000704880690590FCF77EFDCDE90601DDE9BE
:103BE0000C01CDE90401DDE90A01CDE90201DDE9BD
:103BF0000801CDE9000192A0DDE90623FEF724FFCC
:103C00000421182000F092FB1B900421192000F0E1
:103C10008DFB1A9004211A2000F088FB19900421D2
:103C20001B2000F083FB1890189800908CA0DDE911
:103C300019321B99FEF708FF1B9800F0004018B1DD
:103C40001B98C0F1FF301B901A9800F0004018B18B
:103C50001A98C0F1FF301A90199800F0004018B17E
:103C60001998C0F1FF301990189800F0004018B171
:103C70001898C0F1FF3018901B98FCF7F5FC0D90D8
:103C80006E4801680D98FCF7EEFA424988621A986E
:103C9000FCF7EAFC0D90694801680D98FCF7E3FA1F
:103CA0003C49C8621998FCF7DFFC0D906348016835
:103CB0000D98FCF7D8FA374908631898FCF7D4FC3C
:103CC0000D905E4801680D98FCF7CDFA31494863C4
:103CD0000846406B0590FCF7FEFCCDE90C012D4831
:103CE000006B0590FCF7F7FCCDE90A012948C06A92
:103CF0000590FCF7F0FCCDE908012648806A0590A4
:103D0000FCF7E9FCCDE90601DDE90C01CDE9040190
:103D1000DDE90A01CDE90201DDE90801CDE9000193
:103D20005DA0DDE90623FEF78FFE04211C2000F0D4
:103D3000FDFA179004211D2000F0F8FA16900421D6
:103D40001E2000F0F3FA159004211F2000F0EEFA77
:103D50001490B7E084000020636865636B53756D51
:103D6000206572726F0A000055615F5245473D3011
:103D7000782578202055625F5245473D3078257878
:103D8000202055635F5245473D307825780D0A0065
:103D9000540000203811002055613D25332E346633
:103DA000202055623D25332E3466202055633D2565
:103DB000332E34660D0A000049615F5245473D309D
:103DC000782578202049625F5245473D3078257834
:103DD000202049635F5245473D307825780D0A0021
:103DE0005800002049613D25332E34662020496269
:103DF0003D25332E3466202049633D25332E34661D
:103E00000D0A000050615F5245473D30782578200B
:103E10002050625F5245473D30782578202050631E
:103E20005F5245473D30782578202050745F5245D9
:103E3000473D307825780D0A000000005C00002026
:103E400050613D2566202050623D2566202050634C
:103E50003D2566202050743D25660D0A00000000B7
:103E600051615F5245473D30782578202051625F8F
:103E70005245473D30782578202051635F524547B1
:103E80003D30782578202051745F5245473D307889
:103E900025780D0A0000000051613D25362E32665E
:103EA000202051623D25362E3266202051633D256B
:103EB000362E3266202051743D25362E32660D0A8C
:103EC0000000000014980090D5A0DDE91532179984
:103ED000FEF7BAFD1798FCF7C7FB0D90DE480168A6
:103EE0000D98FCF7C0F9DD4988631698FCF7BCFB18
:103EF0000D90D94801680D98FCF7B5F9D749C8630A
:103F00001598FCF7B1FB0D90D34801680D98FCF7AC
:103F1000AAF9D24908641498FCF7A6FB0D90CE4884
:103F200001680D98FCF79FF9CC4948640846406C3D
:103F30000590FCF7D0FBCDE90C01C848006C05905A
:103F4000FCF7C9FBCDE90A01C448C06B0590FCF73A
:103F5000C2FBCDE90801C148806B0590FCF7BBFBB3
:103F6000CDE90601DDE90C01CDE90401DDE90A0135
:103F7000CDE90201DDE90801CDE90001B8A0DDE9E4
:103F80000623FEF761FD0321202000F0CFF91390F6
:103F90000321212000F0CAF912900321222000F011
:103FA000C5F911900321232000F0C0F9109010985A
:103FB0000090B5A0DDE911321399FEF745FD139885
:103FC00000F4000020B16FF07F411398081A13909D
:103FD000129800F4000020B16FF07F411298081A87
:103FE0001290119800F4000020B16FF07F411198F9
:103FF000081A1190109800F4000020B16FF07F4172
:104000001098081A10901398FCF744FB0022AD4B4F
:10401000CDE90A01FCF7B0FACDE90C01FCF76EFB23
:104020008E4988641298FCF735FB0022A54BCDE938
:104030000A01FCF7A1FACDE90C01FCF75FFB874907
:10404000C8641198FCF726FB00229E4BCDE90A01BB
:10405000FCF792FACDE90C01FCF750FB7F490865AB
:104060000846006D0790FCF736FBCDE90C017B4854
:10407000C06C0790FCF72FFBCDE90A017748806CF4
:104080000790FCF728FBCDE90801DDE90C01CDE93B
:104090000201DDE90A01CDE900018BA0DDE9082379
:1040A000FEF7D2FC0321572000F040F90F900F9843
:1040B000FCF7F0FA02460B46CDE90A0100208849D8
:1040C000FCF75AFACDE90C01FCF718FB6349486587
:1040D0000846406D83490D90FCF736FB06D35F48D8
:1040E000406D81490D90FCF725FB01D27F4801E02E
:1040F0005A48406D594948650846406D0B90FCF799
:10410000EAFA02460B46CDE90C0179A0FEF79CFCC9
:104110000321332000F00AF90E9079480068FCF77B
:10412000B9FACDE90A010E98FCF7B4FA0022754BF2
:10413000CDE90601FCF7AEF9CDE90801DDE90A2376
:10414000FCF71AFACDE90C01FCF7D8FA4349886567
:104150000846806D0B90FCF7BEFA02460B46CDE98F
:104160000C0169A00E99FEF76FFC3C4800680D90A9
:10417000FCF7B1FA6C4A03C2384840680D90FCF76E
:10418000AAFA694AC2E90201344880680D90FCF736
:10419000A2FA654AC2E904013048C0680D90FCF7F4
:1041A0009AFA614AC2E906012C4800690D90FCF7B1
:1041B00092FA5D4AC2E90801284840690D90FCF76F
:1041C0008AFA594AC2E90A01244880690D90FCF72D
:1041D00082FA554AC2E90C012048C0690D90FCF7EB
:1041E0007AFA514AC2E90E011C48006A0D90FCF7A8
:1041F00072FA4D4AC2E910011848406D0D90FCF763
:104200006AFA494AC2E912011448806D0D90FCF720
:1042100062FA454AC2E9140100BFFFF7A7BB0000DC
:1042200053615F5245473D30782578202053625FC7
:104230005245473D30782578202053635F524547EB
:104240003D30782578202053745F5245473D3078C3
:1042500025780D0A000000005C00002038110020C5
:1042600053613D25362E3266202053623D25362E81
:104270003266202053633D25362E32662053743D2E
:1042800025362E32660D0A005046615F5245473D85
:104290003078257820205046625F5245473D30787F
:1042A000257820205046635F5245473D3078257879
:1042B00020205046745F5245473D307825780D0ADE
:1042C00000000000000060415046613D256620204E
:1042D0005046623D256620205046633D25660A0013
:1042E00000408F4100007042000020420000484220
:1042F000554665713D25322E34660D0A00000000DA
:10430000600000200000F03F456E657267655F52F7
:1043100045473D25642020456E657267653D253221
:104320002E3466200A000000981100202DE9F04785
:10433000064688460220FFF761F820211A48FDF75B
:1043400038F9F4B225462046FEF74CFB300900F060
:10435000F0042819C5B22046FEF744FB0520FFF7FC
:104360004DF80027B9460AE0FDF778FF04463F0202
:1043700027442819C5B209F1010000F0FF09C14521
:10438000F2DBE843C5B2FDF769FFA84201D04FF068
:10439000FF3720210448FDF70EF90220FFF72EF821
:1043A0003846BDE8F08700000008014008B510203D
:1043B0008DF8030001208DF802007020ADF8000098
:1043C00069460748FDF718F88020ADF8000048203E
:1043D0008DF8030069460248FDF70EF808BD00009D
:1043E000000801402DE9F047064689469046202105
:1043F0001848FDF7DEF8F5B22C462846FEF7F2FA2B
:10440000300900F0F0008030C5B26019C4B228460F
:10441000FEF7E8FA00270DE0A8F10100C01BC0007C
:1044200029FA00F0C5B22846FEF7DCFA6019C4B2DA
:10443000781CC7B24745EFDBE043C4B22046FEF725
:10444000D1FA20210348FDF7B6F80220FEF7D6FF87
:10445000BDE8F0870008014010B586B00446012190
:1044600044F20400FDF770FE4FF40070ADF8140044
:1044700018208DF8170003208DF8160005A91F4895
:10448000FCF7BAFF4FF48060ADF8140004208DF8FB
:10449000170005A91948FCF7AFFF01940020ADF8FB
:1044A0000800ADF80A00ADF80C00ADF810000C20C3
:1044B000ADF80E0001A91248FEF7F4F9012240F20E
:1044C00025510F48FEF7C9F901210D48FEF734F9CF
:1044D0004FF4A060FDF7FAFB25208DF800000120C5
:1044E0008DF8010002208DF8020001208DF80300F4
:1044F0006846FDF7B3FB06B010BD000000080140A0
:104500000038014010B586B0044601210420FDF7B3
:104510001BFE01214804FDF7F7FD2348FEF718F9BB
:104520000420ADF8140003208DF8160018208DF833
:10453000170005A91D48FCF75FFF0820ADF814001F
:1045400004208DF8170005A91848FCF755FF262010
:104550008DF8000001208DF8010002208DF8020086
:1045600001208DF803006846FDF778FB01940020D8
:10457000ADF80800ADF80A00ADF80C00ADF8100079
:104580000C20ADF80E0001A90748FEF78BF90122B7
:1045900040F225510448FEF760F901210248FEF778
:1045A000CBF806B010BD00000044004000080140F8
:1045B00010B586B0044601212548FDF7C5FD4FF42E
:1045C0008060ADF8140018208DF8170003208DF8D6
:1045D000160005A91F48FCF70FFF4FF40060ADF867
:1045E000140004208DF8170005A91A48FCF704FFF1
:1045F00001940020ADF80800ADF80A00ADF80C00F9
:10460000ADF810000C20ADF80E0001A91248FEF71D
:1046100049F9012240F225510F48FEF71EF9012108
:104620000D48FEF789F84FF4A060FDF74FFB2720F7
:104630008DF8000001208DF8010002208DF80200A5
:1046400001208DF803006846FDF708FB06B010BD99
:1046500008000400000C0140004800400000000079
:1046600000000000002F00000000070007000014F9
:104670007F147F1400242A7F2A1200626408132307
:1046800000364955225000000503000000001C229E
:104690004100000041221C000014083E08140008DC
:1046A000083E0808000000A060000008080808088C
:1046B000000060600000002010080402003E514924
:1046C000453E0000427F40000042615149460021C2
:1046D00041454B31001814127F10002745454539DC
:1046E000003C4A4949300001710905030036494937
:1046F000493600064949291E0000363600000000F0
:10470000563600000008142241000014141414143A
:1047100000004122140800020151090600324959E3
:10472000513E007C1211127C007F49494936003EFF
:1047300041414122007F4141221C007F49494941BA
:10474000007F09090901003E4149497A007F0808B4
:10475000087F0000417F4100002040413F01007F71
:1047600008142241007F40404040007F020C027F3D
:10477000007F0408107F003E4141413E007F09094F
:104780000906003E4151215E007F09192946004675
:10479000494949310001017F0101003F4040403F4C
:1047A000001F2040201F003F4038403F0063140896
:1047B0001463000708700807006151494543000071
:1047C0007F41410000552A552A55000041417F0094
:1047D0000004020102040040404040400000010289
:1047E0000400002054545478007F48444438003872
:1047F0004444442000384444487F003854545418FA
:1048000000087E0901020018A4A4A47C007F08040B
:1048100004780000447D4000004080847D00007FDB
:10482000102844000000417F4000007C04180478F8
:10483000007C0804047800384444443800FC2424F4
:1048400024180018242418FC007C080404080048DC
:104850005454542000043F444020003C4040207CFD
:10486000001C2040201C003C4030403C00442810EC
:104870002844001CA0A0A07C004464544C441414A0
:1048800014141414000000000000000000000000D8
:104890000000FC000000000002000000000C020C00
:1048A000020000000000000090D0BCD0BC900003CB
:1048B000000300001824FE448C00030207020100DC
:1048C0001824D8B04C80000300010201C038E4383D
:1048D000E0000102020102020806000000000000E0
:1048E00000000000000000F80402000000010204C3
:1048F000000204F800000004020100009060F8606B
:1049000090000000010000002020FC20200000009A
:104910000100000000000000000008060000000088
:1049200020202020200000000000000000000000E7
:1049300000000002000000000080601C0200040370
:1049400000000000F8040404F80001020202010063
:104950000008FC0000000002030200001884442448
:10496000180003020202020008042424D8000102F5
:104970000202010040B088FC800000000003020039
:104980003C242424C400010202020100F824242C47
:10499000C0000102020201000C04E41C040000003B
:1049A00003000000D8242424D800010202020100E0
:1049B00038444444F80000030202010000001000E3
:1049C00000000000020000000000200000000000C5
:1049D00006000000002050880402000000000102D0
:1049E0009090909090000000000000000002048869
:1049F00050200002010000001804C4241800000028
:104A000002000000F804E494F8000102020202002F
:104A100000E09CF0800002030000030204FC242458
:104A2000D800020302020100F80404040C00010291
:104A30000202010004FC0404F80002030202010067
:104A400004FC24740C0002030202030004FC24741E
:104A50000C00020302000000F0080444CC400001F6
:104A60000202010004FC2020FC04020300000302F7
:104A70000404FC040400020203020200000404FC1B
:104A8000040406040403000004FC24D00C04020304
:104A90000200030204FC04000000020302020203FD
:104AA000FC3CC03CFC0003000300030004FC30C4D9
:104AB000FC04020302000300F8040404F8000102ED
:104AC0000202010004FC242418000203020000007A
:104AD000F8848404F80001020207050004FC246441
:104AE0009800020302000302182424448C000302ED
:104AF000020201000C04FC040C000002030200008E
:104B000004FC0000FC04000102020100047C80E0BF
:104B10001C040000030000001CE03CE01C0000033B
:104B200000030000049C609C0400020300030200D8
:104B3000041CE01C04000002030200000C84641C3E
:104B400004000203020203000000FE020200000053
:104B500007040400000E30C0000000000001020045
:104B6000000202FE0000000404070000000402042A
:104B70000000000000000000000000000000080825
:104B80000808080800000200000000000000000003
:104B90000040A0A0C00000010202030204FC20208B
:104BA000C00000030202010000C0202060000001DC
:104BB0000202020000C02024FC00000102020302E5
:104BC00000C0A0A0C0000001020202000020F824E2
:104BD00024040002030202000040A0A0602000079D
:104BE0000A0A0A0404FC2020C00002030200030297
:104BF0000020E4000000000203020000000020E4A6
:104C0000000008080807000004FC80E020200203E0
:104C1000020003020404FC0000000202030202007E
:104C2000E020E020C00003000300030020E020207B
:104C3000C00002030200030200C02020C0000001E7
:104C40000202010020E02020C000080F0A0201003B
:104C500000C02020E0000001020A0F0820E04020F0
:104C600020000203020000000060A0A0200000025B
:104C7000020203000020F8200000000001020200F0
:104C800020E00020E00000010202030220E020807A
:104C900060200000030100006080E08060000003ED
:104CA0000003000020608060200002030003020077
:104CB00020E0208060200808070100000020A0609C
:104CC0002000000203020200000020DE02000000BB
:104CD00000070400000000FF00000000000F0000BB
:104CE0000002DE20000000040700000002010204B0
:104CF00004020000000000000000000000000000AE
:104D00000000000000000000000000F800000000AB
:104D1000000000333000000000100C06100C0600EC
:104D2000000000000000000040C07840C078400053
:104D3000043F04043F040400007088FC08300000B5
:104D4000001820FF211E0000F008F000E01800000D
:104D500000211C031E211E0000F0088870000000C6
:104D60001E2123241927211010160E000000000018
:104D70000000000000000000000000E01804020035
:104D8000000000071820400000020418E0000000A6
:104D90000040201807000000404080F080404000A4
:104DA0000202010F01020200000000F000000000FA
:104DB0000101011F010101000000000000000000CE
:104DC00080B0700000000000000000000000000043
:104DD00000010101010101010000000000000000CC
:104DE0000030300000000000000000008060180467
:104DF000006018060100000000E010080810E00044
:104E0000000F102020100F00001010F8000000000C
:104E10000020203F20200000007008080888700053
:104E200000302824222130000030088888483000D3
:104E30000018202020110E000000C02010F80000F3
:104E400000070424243F240000F80888880808008C
:104E50000019212020110E0000E0108888180000A1
:104E6000000F112020110E0000380808C838080073
:104E70000000003F000000000070880808887000F3
:104E8000001C222121221C0000E010080810E00074
:104E90000000312222110F00000000C0C0000000FD
:104EA0000000003030000000000000800000000022
:104EB000000080600000000000008040201008001A
:104EC00000010204081020004040404040404000E3
:104ED00004040404040404000008102040800000BE
:104EE0000020100804020100007048080808F000C3
:104EF0000000003036010000C030C828E810E00093
:104F00000718272423140B000000C038E00000001D
:104F1000203C23020227382008F888888870000087
:104F2000203F202020110E00C0300808080838005B
:104F3000071820202010080008F808080810E000D2
:104F4000203F202020100F0008F88888E808100073
:104F5000203F20202320180008F88888E808100047
:104F6000203F200003000000C0300808083800007F
:104F700007182020221E020008F808000008F80880
:104F8000203F210101213F20000808F80808000007
:104F90000020203F2020000000000808F80808003A
:104FA000C08080807F00000008F888C028180800B2
:104FB000203F20012638200008F8080000000000EB
:104FC000203F20202020300008F8F800F8F80800E2
:104FD000203F003F003F200008F830C00008F808DC
:104FE000203F200007183F00E01008080810E000EC
:104FF0000F10202020100F0008F808080808F00003
:10500000203F210101010000E01008080810E00025
:105010000F18242438504F0008F8888888887000BA
:10502000203F2000030C302000708808080838005A
:105030000038202121221C00180808F80808180050
:105040000000203F2000000008F808000008F808D1
:10505000001F202020201F000878880000C8380882
:10506000000007380E010000F80800F80008F800FA
:10507000033C0700073C0300081868808068180894
:1050800020302C03032C30200838C800C838080012
:105090000000203F2000000010080808C838080061
:1050A0002038262120201800000000FE0202020005
:1050B0000000007F40404000000C30C000000000B5
:1050C000000000010638C00000020202FE000000DD
:1050D000004040407F000000000004020202040083
:1050E00000000000000000000000000000000000C0
:1050F00080808080808080800002020400000000A8
:10510000000000000000000000008080808000009F
:105110000019242222223F2008F80080800000008D
:10512000003F112020110E00000000808080000050
:10513000000E112020201100000000808088F8005F
:10514000000E112020103F20000080808080000091
:10515000001F222222221300008080F088888818F5
:105160000020203F20200000000080808080800000
:10517000006B94949493600008F800808080000095
:10518000203F210000203F20008098980000000070
:105190000020203F202000000000008098980000A0
:1051A00000C08080807F000008F8000080808000C0
:1051B000203F24022D302000000808F800000000E5
:1051C0000020203F202000008080808080808000A0
:1051D000203F20003F20003F808000808080000032
:1051E000203F210000203F200000808080800000C0
:1051F000001F202020201F008080008080000000F1
:1052000080FFA12020110E0000000080808080001F
:10521000000E112020A0FF80808080008080800010
:1052200020203F212000010000008080808080003D
:105230000033242424241900008080E080800000B2
:105240000000001F202000008080000000808000FF
:10525000001F202020103F20808080000080808060
:1052600000010E30080601008080008000808080F0
:105270000F300C030C300F00008080008080800015
:105280000020312E0E312000808080000080808040
:1052900080818E70180601000080808080808000F0
:1052A0000021302C2221300000000000807C02020E
:1052B00000000000003F404000000000FF00000030
:1052C00000000000FF0000000002027C80000000DF
:1052D0000040403F000000000006010102020404FB
:1052E00000000000000000000000000000000000BE
:1052F00000000000000000000000000000000000AE
:10530000000000000000000000000000000000009D
:1053100000F0F0F0000000000000000000017F013C
:105320000000000000000000001C1C1C0000000029
:1053300000008060301C8C60301C0C0000000000FD
:10534000000000000000000000000000000000005D
:1053500000000000000000E00000000000E000008D
:105360000086E69F86868686E69F860000011F01EE
:10537000010101011F010100000080C06020F82030
:10538000E0C00000000003070C18FF70E18100007E
:105390000000070F10107F100F07000080602060D2
:1053A00080000000E02000000F3020309F70DC37CC
:1053B0001030C0000000100E03000718101807007E
:1053C0000000C02020E0C0000000000080E01F3886
:1053D000E88703C43C040000070F1810100B070DEA
:1053E0001010080000808C4C380000000000000005
:1053F00000000000000000000000000000000000AD
:10540000000000000000000000000000000080E03C
:10541000300804000000000000FEFF010000000052
:10542000000000000000030F1820400000040830B6
:10543000E0800000000000000000000001FFFE000E
:1054400000000000004020180F03000000000000D2
:10545000000000000000C00000000000004266667E
:105460003C18FF183C666642000000000000030084
:1054700000000000000000000000800000000000AC
:10548000001010101010FF1010101010000000007D
:105490000000030000000000000000000000000009
:1054A00000000000000000000000000000000000FC
:1054B00000808C4C3800000000000000000000005C
:1054C000000000000000000000101010101010106C
:1054D000101010000000000000000000000000009C
:1054E00000000000000000000000000000000000BC
:1054F000000000000000000000001C1C1C00000058
:10550000000000000000000000000000E0380C0077
:105510000000000080701C03000000000060380ED6
:105520000100000000000000000080C0602020603A
:10553000C080000000FEFF010000000001FFFE002F
:105540000001070E181010180E07010000008080DF
:1055500080C0E000000000000000000000FFFF002D
:105560000000000000001010101F1F10101000009D
:105570000080402020202060C08000000003030045
:10558000804020381F070000001C1A19181818182E
:10559000181F00000080C020202060C08000000094
:1055A000000303001010182FE780000000070F1001
:1055B000101010180F070000000000000000C0E0ED
:1055C000F000000000C0B088868180FFFF8080006E
:1055D000000000000010101F1F1010000000E0600D
:1055E000606060606060000000003F1008080818FC
:1055F000F0E0000000070B101010101C0F0300005B
:10560000000080C040202020E0C0000000FCFF21FE
:105610001008080818F0E0000001070C181010101E
:10562000080F03000000C0E06060606060E06000A0
:10563000000003000000E018070000000000000068
:10564000001F1F00000000000080C06020202020FC
:1056500060C080000087EF2C1818303068CF8300BE
:1056600000070F0810101010180F07000000C0C02E
:1056700020202020C0800000001F3F6040404020CC
:1056800010FFFE0000000C1C101010080F0300009B
:10569000000000000000000000000000000000000A
:1056A000000E0E0E0000000000000000001C1C1C7C
:1056B00000000000000000000000000000000000EA
:1056C00000000000000C0C000000000000000000C2
:1056D00000583800000000000000000000000080BA
:1056E000402010000000102844820100000000004B
:1056F000000000000000010204081000000000008B
:1057000000000000000000000084848484848484FD
:1057100084848400000000000000000000000000FD
:105720000000102040800000000000000000000089
:10573000000001824428100000001008040201004B
:105740000000000000C020201010101030E0C00049
:105750000003030000F010080C0703000000000025
:105760001C1C1C0000000000000000C04060202045
:105770002040C00000FCFF01F00E03C1FE03807F4B
:105780000001070E081111101109040200000000A9
:1057900080E0E000000000000000807C4340477F84
:1057A000F880000010181F1000000000131F1C10CC
:1057B00020E0E02020202060C080000000FFFF10DB
:1057C000101010182FE78000101F1F10101010105D
:1057D000180F0700000080C0402020202060E0005B
:1057E00000FCFF0100000000000001000001070EA6
:1057F000181010100804030020E0E02020202040B2
:10580000C080000000FFFF000000000001FFFE005C
:10581000101F1F10101018080E07010020E0E020D4
:10582000202020202060800000FFFF101010107C3E
:1058300000000000101F1F1010101010101806009C
:1058400020E0E020202020206060800000FFFF108A
:105850001010107C00000100101F1F10000000003D
:1058600000000000000080C06020202040E0000018
:1058700000FCFF0100004040C0C140400001070E95
:10588000181010100F0F000020E0E02000000000B2
:1058900020E0E02000FFFF101010101010FFFF00AC
:1058A000101F1F1000000000101F1F1000002020FC
:1058B00020E0E020202000000000000000FFFF00AA
:1058C0000000000000001010101F1F10101000003A
:1058D00000000000202020E0E02020200000000048
:1058E000000000FFFF0000000060E0808080C07FBB
:1058F0003F00000020E0E020000020A06020200009
:1059000000FFFF30187CE3C000000000101F1F10D4
:10591000000001131F1C181020E0E0200000000010
:105920000000000000FFFF00000000000000000079
:10593000101F1F10101010101018060020E0E0E0DB
:1059400000000000E0E0E02000FF013FFEC0E01E9C
:1059500001FFFF00101F1000031F0300101F1F1086
:1059600020E0E0C0000000000020E02000FF000375
:10597000071C78E08000FF00101F100000000000EE
:10598000030F1F00000080C060202060C080000066
:1059900000FEFF010000000000FFFE000001070EF6
:1059A000181010180C07010020E0E0202020202013
:1059B00060C0800000FFFF2020202020301F0F004B
:1059C000101F1F100000000000000000000080C039
:1059D00060202060C080000000FEFF010000000089
:1059E00000FFFE000001070E1111133C7C6721002F
:1059F00020E0E0202020202060C0800000FFFF1079
:105A00001030F0D0080F0700101F1F100000000317
:105A10000F1C10100080C060202020204040E000BB
:105A200000070F0C1818303060E08100001F0C08D0
:105A300010101010180F07008060202020E0E020D8
:105A4000202060800100000000FFFF000000000136
:105A500000000000101F1F100000000020E0E020E8
:105A6000000000000020E02000FFFF000000000018
:105A70000000FF0000070F1810101010100807009A
:105A80002060E0E02000000020E060200000077FB0
:105A9000F88000807C03000000000000071F1C0746
:105AA0000000000020E0E02000E0E0200020E020F6
:105AB0000007FFF8E01FFFFCE01F00000000031FCD
:105AC0000300011F03000000002060E0A000002090
:105AD000E0602000000000038F7CF8C60100000099
